{
  "contractName": "CourseList",
  "abi": [
    {
      "constant": true,
      "inputs": [],
      "name": "courseCount",
      "outputs": [
        {
          "name": "",
          "type": "uint256"
        }
      ],
      "payable": false,
      "stateMutability": "view",
      "type": "function",
      "signature": "0x66055159"
    },
    {
      "constant": true,
      "inputs": [
        {
          "name": "",
          "type": "uint256"
        }
      ],
      "name": "courseDetails",
      "outputs": [
        {
          "name": "courseId",
          "type": "uint256"
        },
        {
          "name": "courseName",
          "type": "string"
        },
        {
          "name": "offeredBy",
          "type": "string"
        },
        {
          "name": "courseHash",
          "type": "string"
        }
      ],
      "payable": false,
      "stateMutability": "view",
      "type": "function",
      "signature": "0xd1be5309"
    },
    {
      "constant": false,
      "inputs": [
        {
          "name": "hash",
          "type": "string"
        },
        {
          "name": "name",
          "type": "string"
        },
        {
          "name": "by",
          "type": "string"
        }
      ],
      "name": "createCourse",
      "outputs": [],
      "payable": false,
      "stateMutability": "nonpayable",
      "type": "function",
      "signature": "0x89d45b86"
    },
    {
      "constant": false,
      "inputs": [],
      "name": "getCourseCount",
      "outputs": [
        {
          "name": "",
          "type": "uint256"
        }
      ],
      "payable": false,
      "stateMutability": "nonpayable",
      "type": "function",
      "signature": "0x96cfda06"
    },
    {
      "constant": false,
      "inputs": [
        {
          "name": "index",
          "type": "uint256"
        }
      ],
      "name": "getCourse",
      "outputs": [
        {
          "name": "",
          "type": "uint256"
        },
        {
          "name": "",
          "type": "string"
        },
        {
          "name": "",
          "type": "string"
        },
        {
          "name": "",
          "type": "string"
        }
      ],
      "payable": false,
      "stateMutability": "nonpayable",
      "type": "function",
      "signature": "0x0b91e28d"
    }
  ],
  "bytecode": "0x60806040526000805534801561001457600080fd5b50610baf806100246000396000f3fe60806040526004361061006d576000357c0100000000000000000000000000000000000000000000000000000000900463ffffffff1680630b91e28d14610072578063660551591461020557806389d45b861461023057806396cfda0614610426578063d1be530914610451575b600080fd5b34801561007e57600080fd5b506100ab6004803603602081101561009557600080fd5b81019080803590602001909291905050506105e4565b60405180858152602001806020018060200180602001848103845287818151815260200191508051906020019080838360005b838110156100f95780820151818401526020810190506100de565b50505050905090810190601f1680156101265780820380516001836020036101000a031916815260200191505b50848103835286818151815260200191508051906020019080838360005b8381101561015f578082015181840152602081019050610144565b50505050905090810190601f16801561018c5780820380516001836020036101000a031916815260200191505b50848103825285818151815260200191508051906020019080838360005b838110156101c55780820151818401526020810190506101aa565b50505050905090810190601f1680156101f25780820380516001836020036101000a031916815260200191505b5097505050505050505060405180910390f35b34801561021157600080fd5b5061021a610827565b6040518082815260200191505060405180910390f35b34801561023c57600080fd5b506104246004803603606081101561025357600080fd5b810190808035906020019064010000000081111561027057600080fd5b82018360208201111561028257600080fd5b803590602001918460018302840111640100000000831117156102a457600080fd5b91908080601f016020809104026020016040519081016040528093929190818152602001838380828437600081840152601f19601f8201169050808301925050505050505091929192908035906020019064010000000081111561030757600080fd5b82018360208201111561031957600080fd5b8035906020019184600183028401116401000000008311171561033b57600080fd5b91908080601f016020809104026020016040519081016040528093929190818152602001838380828437600081840152601f19601f8201169050808301925050505050505091929192908035906020019064010000000081111561039e57600080fd5b8201836020820111156103b057600080fd5b803590602001918460018302840111640100000000831117156103d257600080fd5b91908080601f016020809104026020016040519081016040528093929190818152602001838380828437600081840152601f19601f82011690508083019250505050505050919291929050505061082d565b005b34801561043257600080fd5b5061043b6108dd565b6040518082815260200191505060405180910390f35b34801561045d57600080fd5b5061048a6004803603602081101561047457600080fd5b81019080803590602001909291905050506108e6565b60405180858152602001806020018060200180602001848103845287818151815260200191508051906020019080838360005b838110156104d85780820151818401526020810190506104bd565b50505050905090810190601f1680156105055780820380516001836020036101000a031916815260200191505b50848103835286818151815260200191508051906020019080838360005b8381101561053e578082015181840152602081019050610523565b50505050905090810190601f16801561056b5780820380516001836020036101000a031916815260200191505b50848103825285818151815260200191508051906020019080838360005b838110156105a4578082015181840152602081019050610589565b50505050905090810190601f1680156105d15780820380516001836020036101000a031916815260200191505b5097505050505050505060405180910390f35b600060608060606001600086815260200190815260200160002060000154600160008781526020019081526020016000206001016001600088815260200190815260200160002060020160016000898152602001908152602001600020600301828054600181600116156101000203166002900480601f0160208091040260200160405190810160405280929190818152602001828054600181600116156101000203166002900480156106d95780601f106106ae576101008083540402835291602001916106d9565b820191906000526020600020905b8154815290600101906020018083116106bc57829003601f168201915b50505050509250818054600181600116156101000203166002900480601f0160208091040260200160405190810160405280929190818152602001828054600181600116156101000203166002900480156107755780601f1061074a57610100808354040283529160200191610775565b820191906000526020600020905b81548152906001019060200180831161075857829003601f168201915b50505050509150808054600181600116156101000203166002900480601f0160208091040260200160405190810160405280929190818152602001828054600181600116156101000203166002900480156108115780601f106107e657610100808354040283529160200191610811565b820191906000526020600020905b8154815290600101906020018083116107f457829003601f168201915b5050505050905093509350935093509193509193565b60005481565b600080815460010191905081905550608060405190810160405280600054815260200183815260200182815260200184815250600160008054815260200190815260200160002060008201518160000155602082015181600101908051906020019061089a929190610ade565b5060408201518160020190805190602001906108b7929190610ade565b5060608201518160030190805190602001906108d4929190610ade565b50905050505050565b60008054905090565b6001602052806000526040600020600091509050806000015490806001018054600181600116156101000203166002900480601f0160208091040260200160405190810160405280929190818152602001828054600181600116156101000203166002900480156109985780601f1061096d57610100808354040283529160200191610998565b820191906000526020600020905b81548152906001019060200180831161097b57829003601f168201915b505050505090806002018054600181600116156101000203166002900480601f016020809104026020016040519081016040528092919081815260200182805460018160011615610100020316600290048015610a365780601f10610a0b57610100808354040283529160200191610a36565b820191906000526020600020905b815481529060010190602001808311610a1957829003601f168201915b505050505090806003018054600181600116156101000203166002900480601f016020809104026020016040519081016040528092919081815260200182805460018160011615610100020316600290048015610ad45780601f10610aa957610100808354040283529160200191610ad4565b820191906000526020600020905b815481529060010190602001808311610ab757829003601f168201915b5050505050905084565b828054600181600116156101000203166002900490600052602060002090601f016020900481019282601f10610b1f57805160ff1916838001178555610b4d565b82800160010185558215610b4d579182015b82811115610b4c578251825591602001919060010190610b31565b5b509050610b5a9190610b5e565b5090565b610b8091905b80821115610b7c576000816000905550600101610b64565b5090565b9056fea165627a7a72305820d421f38b03bfbed528e8fed4fbee80d2a6cca4983f79355c13abd80fc08cd6fa0029",
  "source": "pragma solidity ^0.5.0;\n\ncontract CourseList {\n    uint public courseCount = 0;\n\n    struct CourseDetails {\n        uint courseId;\n        string courseName;\n        string offeredBy;\n        string courseHash;\n    }\n\n    mapping(uint => CourseDetails) public courseDetails;\n\n    function createCourse (string memory hash, string memory name, string memory by) public {\n        ++courseCount;\n        courseDetails[courseCount] = CourseDetails(courseCount, name, by, hash);\n    }\n\n    function getCourseCount() public returns(uint){\n      return courseCount;\n    }\n\n   function getCourse(uint index) public returns(uint, string memory, string memory, string memory){\n      return (courseDetails[index].courseId, courseDetails[index].courseName, courseDetails[index].offeredBy, courseDetails[index].courseHash);\n   }\n\n}\n",
  "sourcePath": "/home/arvindraj/Documents/Projects/ethlearn/contracts/CourseList.sol",
  "compiler": {
    "name": "solc",
    "version": "0.5.0+commit.1d4f565a.Emscripten.clang"
  },
  "schemaVersion": "3.0.1",
  "updatedAt": "2021-01-04T13:11:15.371Z",
  "devdoc": {
    "methods": {}
  },
  "userdoc": {
    "methods": {}
  }
}