{
  "contractName": "CourseList",
  "abi": [
    {
      "constant": true,
      "inputs": [],
      "name": "courseCount",
      "outputs": [
        {
          "name": "",
          "type": "uint256"
        }
      ],
      "payable": false,
      "stateMutability": "view",
      "type": "function",
      "signature": "0x66055159"
    },
    {
      "constant": true,
      "inputs": [
        {
          "name": "",
          "type": "uint256"
        }
      ],
      "name": "courseDetails",
      "outputs": [
        {
          "name": "courseId",
          "type": "uint256"
        },
        {
          "name": "courseName",
          "type": "string"
        },
        {
          "name": "offeredBy",
          "type": "string"
        },
        {
          "name": "courseHash",
          "type": "string"
        }
      ],
      "payable": false,
      "stateMutability": "view",
      "type": "function",
      "signature": "0xd1be5309"
    },
    {
      "inputs": [
        {
          "name": "_userContractAddress",
          "type": "address"
        }
      ],
      "payable": false,
      "stateMutability": "nonpayable",
      "type": "constructor",
      "signature": "constructor"
    },
    {
      "constant": false,
      "inputs": [
        {
          "name": "hash",
          "type": "string"
        },
        {
          "name": "name",
          "type": "string"
        },
        {
          "name": "by",
          "type": "string"
        },
        {
          "name": "_institutionHash",
          "type": "address"
        }
      ],
      "name": "createCourse",
      "outputs": [],
      "payable": false,
      "stateMutability": "nonpayable",
      "type": "function",
      "signature": "0x64395a1b"
    },
    {
      "constant": true,
      "inputs": [],
      "name": "getCourseCount",
      "outputs": [
        {
          "name": "",
          "type": "uint256"
        }
      ],
      "payable": false,
      "stateMutability": "view",
      "type": "function",
      "signature": "0x96cfda06"
    },
    {
      "constant": false,
      "inputs": [
        {
          "name": "_courseId",
          "type": "uint256"
        },
        {
          "name": "_userId",
          "type": "uint256"
        },
        {
          "name": "_registerAccount",
          "type": "address"
        }
      ],
      "name": "registerCourse",
      "outputs": [],
      "payable": false,
      "stateMutability": "nonpayable",
      "type": "function",
      "signature": "0xaa77db46"
    },
    {
      "constant": true,
      "inputs": [
        {
          "name": "index",
          "type": "uint256"
        }
      ],
      "name": "getCourse",
      "outputs": [
        {
          "name": "",
          "type": "uint256"
        },
        {
          "name": "",
          "type": "string"
        },
        {
          "name": "",
          "type": "string"
        },
        {
          "name": "",
          "type": "string"
        }
      ],
      "payable": false,
      "stateMutability": "view",
      "type": "function",
      "signature": "0x0b91e28d"
    },
    {
      "constant": true,
      "inputs": [
        {
          "name": "id",
          "type": "uint256"
        }
      ],
      "name": "getStudentList",
      "outputs": [
        {
          "name": "",
          "type": "uint256[]"
        }
      ],
      "payable": false,
      "stateMutability": "view",
      "type": "function",
      "signature": "0xe5a43d87"
    }
  ],
  "bytecode": "0x60806040526000805534801561001457600080fd5b506040516020806110498339810180604052602081101561003457600080fd5b810190808051906020019092919050505080600160006101000a81548173ffffffffffffffffffffffffffffffffffffffff021916908373ffffffffffffffffffffffffffffffffffffffff160217905550600160009054906101000a900473ffffffffffffffffffffffffffffffffffffffff16600260006101000a81548173ffffffffffffffffffffffffffffffffffffffff021916908373ffffffffffffffffffffffffffffffffffffffff16021790555050610f50806100f96000396000f3fe608060405260043610610083576000357c0100000000000000000000000000000000000000000000000000000000900463ffffffff1680630b91e28d1461008857806364395a1b1461021b578063660551591461043157806396cfda061461045c578063aa77db4614610487578063d1be5309146104ec578063e5a43d871461067f575b600080fd5b34801561009457600080fd5b506100c1600480360360208110156100ab57600080fd5b810190808035906020019092919050505061070f565b60405180858152602001806020018060200180602001848103845287818151815260200191508051906020019080838360005b8381101561010f5780820151818401526020810190506100f4565b50505050905090810190601f16801561013c5780820380516001836020036101000a031916815260200191505b50848103835286818151815260200191508051906020019080838360005b8381101561017557808201518184015260208101905061015a565b50505050905090810190601f1680156101a25780820380516001836020036101000a031916815260200191505b50848103825285818151815260200191508051906020019080838360005b838110156101db5780820151818401526020810190506101c0565b50505050905090810190601f1680156102085780820380516001836020036101000a031916815260200191505b5097505050505050505060405180910390f35b34801561022757600080fd5b5061042f6004803603608081101561023e57600080fd5b810190808035906020019064010000000081111561025b57600080fd5b82018360208201111561026d57600080fd5b8035906020019184600183028401116401000000008311171561028f57600080fd5b91908080601f016020809104026020016040519081016040528093929190818152602001838380828437600081840152601f19601f820116905080830192505050505050509192919290803590602001906401000000008111156102f257600080fd5b82018360208201111561030457600080fd5b8035906020019184600183028401116401000000008311171561032657600080fd5b91908080601f016020809104026020016040519081016040528093929190818152602001838380828437600081840152601f19601f8201169050808301925050505050505091929192908035906020019064010000000081111561038957600080fd5b82018360208201111561039b57600080fd5b803590602001918460018302840111640100000000831117156103bd57600080fd5b91908080601f016020809104026020016040519081016040528093929190818152602001838380828437600081840152601f19601f820116905080830192505050505050509192919290803573ffffffffffffffffffffffffffffffffffffffff169060200190929190505050610952565b005b34801561043d57600080fd5b50610446610ae8565b6040518082815260200191505060405180910390f35b34801561046857600080fd5b50610471610aee565b6040518082815260200191505060405180910390f35b34801561049357600080fd5b506104ea600480360360608110156104aa57600080fd5b810190808035906020019092919080359060200190929190803573ffffffffffffffffffffffffffffffffffffffff169060200190929190505050610af7565b005b3480156104f857600080fd5b506105256004803603602081101561050f57600080fd5b8101908080359060200190929190505050610c19565b60405180858152602001806020018060200180602001848103845287818151815260200191508051906020019080838360005b83811015610573578082015181840152602081019050610558565b50505050905090810190601f1680156105a05780820380516001836020036101000a031916815260200191505b50848103835286818151815260200191508051906020019080838360005b838110156105d95780820151818401526020810190506105be565b50505050905090810190601f1680156106065780820380516001836020036101000a031916815260200191505b50848103825285818151815260200191508051906020019080838360005b8381101561063f578082015181840152602081019050610624565b50505050905090810190601f16801561066c5780820380516001836020036101000a031916815260200191505b5097505050505050505060405180910390f35b34801561068b57600080fd5b506106b8600480360360208110156106a257600080fd5b8101908080359060200190929190505050610e11565b6040518080602001828103825283818151815260200191508051906020019060200280838360005b838110156106fb5780820151818401526020810190506106e0565b505050509050019250505060405180910390f35b600060608060606003600086815260200190815260200160002060000154600360008781526020019081526020016000206001016003600088815260200190815260200160002060020160036000898152602001908152602001600020600301828054600181600116156101000203166002900480601f0160208091040260200160405190810160405280929190818152602001828054600181600116156101000203166002900480156108045780601f106107d957610100808354040283529160200191610804565b820191906000526020600020905b8154815290600101906020018083116107e757829003601f168201915b50505050509250818054600181600116156101000203166002900480601f0160208091040260200160405190810160405280929190818152602001828054600181600116156101000203166002900480156108a05780601f10610875576101008083540402835291602001916108a0565b820191906000526020600020905b81548152906001019060200180831161088357829003601f168201915b50505050509150808054600181600116156101000203166002900480601f01602080910402602001604051908101604052809291908181526020018280546001816001161561010002031660029004801561093c5780601f106109115761010080835404028352916020019161093c565b820191906000526020600020905b81548152906001019060200180831161091f57829003601f168201915b5050505050905093509350935093509193509193565b60008081546001019190508190555060005460036000805481526020019081526020016000206000018190555082600360008054815260200190815260200160002060010190805190602001906109aa929190610e7f565b5081600360008054815260200190815260200160002060020190805190602001906109d6929190610e7f565b508360036000805481526020019081526020016000206003019080519060200190610a02929190610e7f565b50600260009054906101000a900473ffffffffffffffffffffffffffffffffffffffff1673ffffffffffffffffffffffffffffffffffffffff166392edfa89600054836040518363ffffffff167c0100000000000000000000000000000000000000000000000000000000028152600401808381526020018273ffffffffffffffffffffffffffffffffffffffff1673ffffffffffffffffffffffffffffffffffffffff16815260200192505050600060405180830381600087803b158015610aca57600080fd5b505af1158015610ade573d6000803e3d6000fd5b5050505050505050565b60005481565b60008054905090565b600260009054906101000a900473ffffffffffffffffffffffffffffffffffffffff1673ffffffffffffffffffffffffffffffffffffffff1663caa5b84e84836040518363ffffffff167c0100000000000000000000000000000000000000000000000000000000028152600401808381526020018273ffffffffffffffffffffffffffffffffffffffff1673ffffffffffffffffffffffffffffffffffffffff16815260200192505050600060405180830381600087803b158015610bbc57600080fd5b505af1158015610bd0573d6000803e3d6000fd5b5050505060036000848152602001908152602001600020600401829080600181540180825580915050906001820390600052602060002001600090919290919091505550505050565b6003602052806000526040600020600091509050806000015490806001018054600181600116156101000203166002900480601f016020809104026020016040519081016040528092919081815260200182805460018160011615610100020316600290048015610ccb5780601f10610ca057610100808354040283529160200191610ccb565b820191906000526020600020905b815481529060010190602001808311610cae57829003601f168201915b505050505090806002018054600181600116156101000203166002900480601f016020809104026020016040519081016040528092919081815260200182805460018160011615610100020316600290048015610d695780601f10610d3e57610100808354040283529160200191610d69565b820191906000526020600020905b815481529060010190602001808311610d4c57829003601f168201915b505050505090806003018054600181600116156101000203166002900480601f016020809104026020016040519081016040528092919081815260200182805460018160011615610100020316600290048015610e075780601f10610ddc57610100808354040283529160200191610e07565b820191906000526020600020905b815481529060010190602001808311610dea57829003601f168201915b5050505050905084565b606060036000838152602001908152602001600020600401805480602002602001604051908101604052809291908181526020018280548015610e7357602002820191906000526020600020905b815481526020019060010190808311610e5f575b50505050509050919050565b828054600181600116156101000203166002900490600052602060002090601f016020900481019282601f10610ec057805160ff1916838001178555610eee565b82800160010185558215610eee579182015b82811115610eed578251825591602001919060010190610ed2565b5b509050610efb9190610eff565b5090565b610f2191905b80821115610f1d576000816000905550600101610f05565b5090565b9056fea165627a7a7230582021a92e6816ccbc52df5451eb006c4342bb5523a1c102cdb5ff2a8de3769c3e150029",
  "source": "pragma solidity ^0.5.0;\n\nimport \"./UserContract.sol\";\n\ncontract CourseList {\n    uint public courseCount = 0;\n    address userContractAddress;\n    UserContract userContract;\n\n    constructor (address _userContractAddress) public{\n      userContractAddress = _userContractAddress;\n      userContract = UserContract(userContractAddress);\n    }\n\n  //  UserContract userContract = UserContract();\n\n    struct CourseDetails {\n        uint courseId;\n        string courseName;\n        string offeredBy;\n        string courseHash;\n        uint[] students;\n    }\n\n    mapping(uint => CourseDetails) public courseDetails;\n\n    function createCourse (string memory hash, string memory name, string memory by, address _institutionHash) public {\n        ++courseCount;\n        courseDetails[courseCount].courseId = courseCount;\n        courseDetails[courseCount].courseName = name;\n        courseDetails[courseCount].offeredBy = by;\n        courseDetails[courseCount].courseHash = hash;\n        userContract.addCourse(courseCount, _institutionHash);\n    }\n\n    function getCourseCount() public view returns(uint){\n      return courseCount;\n    }\n\n    function registerCourse(uint _courseId, uint _userId, address _registerAccount) public{\n        userContract.registerCourse(_courseId, _registerAccount);\n        courseDetails[_courseId].students.push(_userId);\n    }\n\n   function getCourse(uint index) public view returns(uint, string memory, string memory, string memory){\n      return (courseDetails[index].courseId, courseDetails[index].courseName, courseDetails[index].offeredBy, courseDetails[index].courseHash);\n   }\n\n   function getStudentList(uint id) public view returns(uint [] memory){\n       return courseDetails[id].students;\n   }\n\n}\n",
  "sourcePath": "/home/arvindraj/Documents/Projects/ethlearn/contracts/CourseList.sol",
  "compiler": {
    "name": "solc",
    "version": "0.5.0+commit.1d4f565a.Emscripten.clang"
  },
  "schemaVersion": "3.0.1",
  "updatedAt": "2021-02-24T17:10:13.521Z",
  "devdoc": {
    "methods": {}
  },
  "userdoc": {
    "methods": {}
  }
}