{
  "contractName": "Sample",
  "abi": [
    {
      "constant": true,
      "inputs": [],
      "name": "totalMarks",
      "outputs": [
        {
          "name": "",
          "type": "uint256"
        }
      ],
      "payable": false,
      "stateMutability": "view",
      "type": "function",
      "signature": "0x66af77ca"
    },
    {
      "constant": false,
      "inputs": [
        {
          "name": "_answer",
          "type": "string"
        },
        {
          "name": "_ans",
          "type": "bool"
        }
      ],
      "name": "checkAnswers",
      "outputs": [
        {
          "name": "",
          "type": "string"
        }
      ],
      "payable": false,
      "stateMutability": "nonpayable",
      "type": "function",
      "signature": "0x6f7c7312"
    }
  ],
  "bytecode": "0x608060405260026040519080825280602002602001820160405280156100345781602001602082028038833980820191505090505b506001908051906020019061004a92919061005d565b5034801561005757600080fd5b506100cf565b828054828255906000526020600020908101928215610099579160200282015b8281111561009857825182559160200191906001019061007d565b5b5090506100a691906100aa565b5090565b6100cc91905b808211156100c85760008160009055506001016100b0565b5090565b90565b6106bd806100de6000396000f3fe60806040526004361061004c576000357c0100000000000000000000000000000000000000000000000000000000900463ffffffff16806366af77ca146100515780636f7c73121461007c575b600080fd5b34801561005d57600080fd5b506100666101c9565b6040518082815260200191505060405180910390f35b34801561008857600080fd5b5061014e6004803603604081101561009f57600080fd5b81019080803590602001906401000000008111156100bc57600080fd5b8201836020820111156100ce57600080fd5b803590602001918460018302840111640100000000831117156100f057600080fd5b91908080601f016020809104026020016040519081016040528093929190818152602001838380828437600081840152601f19601f8201169050808301925050505050505091929192908035151590602001909291905050506101cf565b6040518080602001828103825283818151815260200191508051906020019080838360005b8381101561018e578082015181840152602081019050610173565b50505050905090810190601f1680156101bb5780820380516001836020036101000a031916815260200191505b509250505060405180910390f35b60025481565b60606102196040805190810160405280600b81526020017f6469737472696275746564000000000000000000000000000000000000000000815250846103b590919063ffffffff16565b1561024f57600180908060018154018082558091505090600182039060005260206000200160009091929091909150555061027d565b6001600090806001815401808255809150509060018203906000526020600020016000909192909190915055505b6001151582151514156102bb5760018090806001815401808255809150509060018203906000526020600020016000909192909190915055506102e9565b6001600090806001815401808255809150509060018203906000526020600020016000909192909190915055505b60008090505b60018054905081101561032d5760018181548110151561030b57fe5b90600052602060002001546002540160028190555080806001019150506102ef565b5060006002541115610376576040805190810160405280600681526020017f506173736564000000000000000000000000000000000000000000000000000081525090506103af565b6040805190810160405280600681526020017f4661696c6564000000000000000000000000000000000000000000000000000081525090505b92915050565b6000806103c284846103cb565b14905092915050565b60006060839050606083905060008251905080825110156103eb57815190505b60008090505b8181101561063757828181518110151561040757fe5b9060200101517f010000000000000000000000000000000000000000000000000000000000000090047f0100000000000000000000000000000000000000000000000000000000000000027effffffffffffffffffffffffffffffffffffffffffffffffffffffffffffff1916848281518110151561048257fe5b9060200101517f010000000000000000000000000000000000000000000000000000000000000090047f0100000000000000000000000000000000000000000000000000000000000000027effffffffffffffffffffffffffffffffffffffffffffffffffffffffffffff19161015610521577fffffffffffffffffffffffffffffffffffffffffffffffffffffffffffffffff94505050505061068b565b828181518110151561052f57fe5b9060200101517f010000000000000000000000000000000000000000000000000000000000000090047f0100000000000000000000000000000000000000000000000000000000000000027effffffffffffffffffffffffffffffffffffffffffffffffffffffffffffff191684828151811015156105aa57fe5b9060200101517f010000000000000000000000000000000000000000000000000000000000000090047f0100000000000000000000000000000000000000000000000000000000000000027effffffffffffffffffffffffffffffffffffffffffffffffffffffffffffff1916111561062a57600194505050505061068b565b80806001019150506103f1565b5081518351101561066d577fffffffffffffffffffffffffffffffffffffffffffffffffffffffffffffffff935050505061068b565b815183511115610683576001935050505061068b565b600093505050505b9291505056fea165627a7a723058208305221b2394d9b23b26cfb3489d2db81dd33d37446bfc99eac58b39beb438cd0029",
  "source": "pragma solidity ^0.5.0;\nimport \"./strings.sol\";\ncontract Sample {\n\n    using StringUtils for string;\n\n    bool result;\n    uint[] marks = new uint[](2);\n    uint public totalMarks;\n\n\n    function checkAnswers(string memory _answer, bool _ans) public returns (string memory){\n        if(_answer.equal(\"distributed\")){\n            marks.push(1);\n        }\n        else{\n            marks.push(0);\n        }\n        if(_ans == true){\n            marks.push(1);\n        }\n        else{\n            marks.push(0);\n        }\n        for(uint i = 0; i<marks.length;i++){\n            totalMarks = totalMarks+marks[i];\n        }\n        if(totalMarks>0)\n          return \"Passed\";\n        else\n          return \"Failed\";\n    }\n\n}\n",
  "sourcePath": "/home/arvindraj/Documents/Projects/ethlearn/contracts/Sample.sol",
  "compiler": {
    "name": "solc",
    "version": "0.5.0+commit.1d4f565a.Emscripten.clang"
  },
  "schemaVersion": "3.0.1",
  "updatedAt": "2020-11-09T09:42:21.657Z",
  "devdoc": {
    "methods": {}
  },
  "userdoc": {
    "methods": {}
  }
}