{
  "contractName": "UserContract",
  "abi": [
    {
      "constant": true,
      "inputs": [],
      "name": "userCount",
      "outputs": [
        {
          "name": "",
          "type": "uint256"
        }
      ],
      "payable": false,
      "stateMutability": "view",
      "type": "function",
      "signature": "0x07973ccf"
    },
    {
      "constant": true,
      "inputs": [
        {
          "name": "",
          "type": "address"
        }
      ],
      "name": "companyAcc",
      "outputs": [
        {
          "name": "id",
          "type": "uint256"
        },
        {
          "name": "name",
          "type": "string"
        },
        {
          "name": "accountHash",
          "type": "string"
        }
      ],
      "payable": false,
      "stateMutability": "view",
      "type": "function",
      "signature": "0x0b665155"
    },
    {
      "constant": true,
      "inputs": [
        {
          "name": "",
          "type": "uint256"
        }
      ],
      "name": "institution",
      "outputs": [
        {
          "name": "id",
          "type": "uint256"
        },
        {
          "name": "name",
          "type": "string"
        },
        {
          "name": "accountHash",
          "type": "string"
        }
      ],
      "payable": false,
      "stateMutability": "view",
      "type": "function",
      "signature": "0x2eb78bf6"
    },
    {
      "constant": true,
      "inputs": [
        {
          "name": "",
          "type": "uint256"
        }
      ],
      "name": "student",
      "outputs": [
        {
          "name": "id",
          "type": "uint256"
        },
        {
          "name": "name",
          "type": "string"
        },
        {
          "name": "accountHash",
          "type": "string"
        }
      ],
      "payable": false,
      "stateMutability": "view",
      "type": "function",
      "signature": "0x35f34232"
    },
    {
      "constant": true,
      "inputs": [],
      "name": "instiCount",
      "outputs": [
        {
          "name": "",
          "type": "uint256"
        }
      ],
      "payable": false,
      "stateMutability": "view",
      "type": "function",
      "signature": "0x632b8bc2"
    },
    {
      "constant": true,
      "inputs": [
        {
          "name": "",
          "type": "address"
        }
      ],
      "name": "studentAcc",
      "outputs": [
        {
          "name": "id",
          "type": "uint256"
        },
        {
          "name": "name",
          "type": "string"
        },
        {
          "name": "accountHash",
          "type": "string"
        }
      ],
      "payable": false,
      "stateMutability": "view",
      "type": "function",
      "signature": "0x8bf06de9"
    },
    {
      "constant": true,
      "inputs": [],
      "name": "companyCount",
      "outputs": [
        {
          "name": "",
          "type": "uint256"
        }
      ],
      "payable": false,
      "stateMutability": "view",
      "type": "function",
      "signature": "0x8e75dd47"
    },
    {
      "constant": true,
      "inputs": [
        {
          "name": "",
          "type": "address"
        }
      ],
      "name": "institutionAcc",
      "outputs": [
        {
          "name": "id",
          "type": "uint256"
        },
        {
          "name": "name",
          "type": "string"
        },
        {
          "name": "accountHash",
          "type": "string"
        }
      ],
      "payable": false,
      "stateMutability": "view",
      "type": "function",
      "signature": "0x8fc3dc65"
    },
    {
      "constant": true,
      "inputs": [],
      "name": "studentCount",
      "outputs": [
        {
          "name": "",
          "type": "uint256"
        }
      ],
      "payable": false,
      "stateMutability": "view",
      "type": "function",
      "signature": "0xe581f9ee"
    },
    {
      "constant": true,
      "inputs": [
        {
          "name": "",
          "type": "uint256"
        }
      ],
      "name": "company",
      "outputs": [
        {
          "name": "id",
          "type": "uint256"
        },
        {
          "name": "name",
          "type": "string"
        },
        {
          "name": "accountHash",
          "type": "string"
        }
      ],
      "payable": false,
      "stateMutability": "view",
      "type": "function",
      "signature": "0xeacebba3"
    },
    {
      "constant": false,
      "inputs": [
        {
          "name": "_name",
          "type": "string"
        },
        {
          "name": "_account",
          "type": "address"
        },
        {
          "name": "_accountHash",
          "type": "string"
        },
        {
          "name": "_userType",
          "type": "string"
        }
      ],
      "name": "createUser",
      "outputs": [
        {
          "name": "",
          "type": "uint256"
        }
      ],
      "payable": false,
      "stateMutability": "nonpayable",
      "type": "function",
      "signature": "0xb1307ee4"
    },
    {
      "constant": true,
      "inputs": [
        {
          "name": "_index",
          "type": "address"
        }
      ],
      "name": "checkUser",
      "outputs": [
        {
          "name": "",
          "type": "uint256"
        },
        {
          "name": "",
          "type": "string"
        },
        {
          "name": "",
          "type": "string"
        },
        {
          "name": "",
          "type": "uint256[]"
        }
      ],
      "payable": false,
      "stateMutability": "view",
      "type": "function",
      "signature": "0x1e9d48cf"
    },
    {
      "constant": false,
      "inputs": [
        {
          "name": "_courseId",
          "type": "uint256"
        },
        {
          "name": "institutionAccount",
          "type": "address"
        }
      ],
      "name": "addCourse",
      "outputs": [],
      "payable": false,
      "stateMutability": "nonpayable",
      "type": "function",
      "signature": "0x92edfa89"
    },
    {
      "constant": false,
      "inputs": [
        {
          "name": "_courseId",
          "type": "uint256"
        },
        {
          "name": "studentAccount",
          "type": "address"
        }
      ],
      "name": "registerCourse",
      "outputs": [],
      "payable": false,
      "stateMutability": "nonpayable",
      "type": "function",
      "signature": "0xcaa5b84e"
    },
    {
      "constant": true,
      "inputs": [
        {
          "name": "account",
          "type": "address"
        }
      ],
      "name": "getDetails",
      "outputs": [
        {
          "name": "",
          "type": "uint256"
        },
        {
          "name": "",
          "type": "string"
        },
        {
          "name": "",
          "type": "string"
        },
        {
          "name": "",
          "type": "uint256[]"
        }
      ],
      "payable": false,
      "stateMutability": "view",
      "type": "function",
      "signature": "0x30289c61"
    },
    {
      "constant": true,
      "inputs": [
        {
          "name": "index",
          "type": "uint256"
        }
      ],
      "name": "getStudentDetails",
      "outputs": [
        {
          "name": "",
          "type": "uint256"
        },
        {
          "name": "",
          "type": "string"
        },
        {
          "name": "",
          "type": "string"
        },
        {
          "name": "",
          "type": "uint256[]"
        }
      ],
      "payable": false,
      "stateMutability": "view",
      "type": "function",
      "signature": "0x86a9b364"
    },
    {
      "constant": true,
      "inputs": [
        {
          "name": "userId",
          "type": "uint256"
        },
        {
          "name": "_courseId",
          "type": "uint256"
        }
      ],
      "name": "getCourseInfo",
      "outputs": [
        {
          "name": "",
          "type": "uint256"
        },
        {
          "name": "",
          "type": "string"
        },
        {
          "name": "",
          "type": "string"
        },
        {
          "name": "",
          "type": "bool"
        },
        {
          "name": "",
          "type": "uint256"
        }
      ],
      "payable": false,
      "stateMutability": "view",
      "type": "function",
      "signature": "0xd7c1f144"
    },
    {
      "constant": false,
      "inputs": [
        {
          "name": "_courseId",
          "type": "uint256"
        },
        {
          "name": "_marks",
          "type": "uint256"
        },
        {
          "name": "studentAccount",
          "type": "address"
        }
      ],
      "name": "submitAnswers",
      "outputs": [],
      "payable": false,
      "stateMutability": "nonpayable",
      "type": "function",
      "signature": "0x72cd73da"
    },
    {
      "constant": false,
      "inputs": [
        {
          "name": "_courseId",
          "type": "uint256"
        },
        {
          "name": "_certificateHash",
          "type": "string"
        },
        {
          "name": "_signature",
          "type": "string"
        },
        {
          "name": "studentAccount",
          "type": "address"
        }
      ],
      "name": "issueCertificate",
      "outputs": [],
      "payable": false,
      "stateMutability": "nonpayable",
      "type": "function",
      "signature": "0xee96c675"
    }
  ],
  "bytecode": "0x60806040526000805560006001556000600255600060035534801561002357600080fd5b506139d8806100336000396000f3fe608060405260043610610107576000357c0100000000000000000000000000000000000000000000000000000000900463ffffffff16806307973ccf1461010c5780630b665155146101375780631e9d48cf146102745780632eb78bf6146103f957806330289c611461052057806335f34232146106a5578063632b8bc2146107cc57806372cd73da146107f757806386a9b3641461085c5780638bf06de9146109cb5780638e75dd4714610b085780638fc3dc6514610b3357806392edfa8914610c70578063b1307ee414610ccb578063caa5b84e14610ef5578063d7c1f14414610f50578063e581f9ee14611093578063eacebba3146110be578063ee96c675146111e5575b600080fd5b34801561011857600080fd5b5061012161136e565b6040518082815260200191505060405180910390f35b34801561014357600080fd5b506101866004803603602081101561015a57600080fd5b81019080803573ffffffffffffffffffffffffffffffffffffffff169060200190929190505050611374565b604051808481526020018060200180602001838103835285818151815260200191508051906020019080838360005b838110156101d05780820151818401526020810190506101b5565b50505050905090810190601f1680156101fd5780820380516001836020036101000a031916815260200191505b50838103825284818151815260200191508051906020019080838360005b8381101561023657808201518184015260208101905061021b565b50505050905090810190601f1680156102635780820380516001836020036101000a031916815260200191505b509550505050505060405180910390f35b34801561028057600080fd5b506102c36004803603602081101561029757600080fd5b81019080803573ffffffffffffffffffffffffffffffffffffffff1690602001909291905050506114ce565b60405180858152602001806020018060200180602001848103845287818151815260200191508051906020019080838360005b838110156103115780820151818401526020810190506102f6565b50505050905090810190601f16801561033e5780820380516001836020036101000a031916815260200191505b50848103835286818151815260200191508051906020019080838360005b8381101561037757808201518184015260208101905061035c565b50505050905090810190601f1680156103a45780820380516001836020036101000a031916815260200191505b50848103825285818151815260200191508051906020019060200280838360005b838110156103e05780820151818401526020810190506103c5565b5050505090500197505050505050505060405180910390f35b34801561040557600080fd5b506104326004803603602081101561041c57600080fd5b8101908080359060200190929190505050611df0565b604051808481526020018060200180602001838103835285818151815260200191508051906020019080838360005b8381101561047c578082015181840152602081019050610461565b50505050905090810190601f1680156104a95780820380516001836020036101000a031916815260200191505b50838103825284818151815260200191508051906020019080838360005b838110156104e25780820151818401526020810190506104c7565b50505050905090810190601f16801561050f5780820380516001836020036101000a031916815260200191505b509550505050505060405180910390f35b34801561052c57600080fd5b5061056f6004803603602081101561054357600080fd5b81019080803573ffffffffffffffffffffffffffffffffffffffff169060200190929190505050611f4a565b60405180858152602001806020018060200180602001848103845287818151815260200191508051906020019080838360005b838110156105bd5780820151818401526020810190506105a2565b50505050905090810190601f1680156105ea5780820380516001836020036101000a031916815260200191505b50848103835286818151815260200191508051906020019080838360005b83811015610623578082015181840152602081019050610608565b50505050905090810190601f1680156106505780820380516001836020036101000a031916815260200191505b50848103825285818151815260200191508051906020019060200280838360005b8381101561068c578082015181840152602081019050610671565b5050505090500197505050505050505060405180910390f35b3480156106b157600080fd5b506106de600480360360208110156106c857600080fd5b81019080803590602001909291905050506121f3565b604051808481526020018060200180602001838103835285818151815260200191508051906020019080838360005b8381101561072857808201518184015260208101905061070d565b50505050905090810190601f1680156107555780820380516001836020036101000a031916815260200191505b50838103825284818151815260200191508051906020019080838360005b8381101561078e578082015181840152602081019050610773565b50505050905090810190601f1680156107bb5780820380516001836020036101000a031916815260200191505b509550505050505060405180910390f35b3480156107d857600080fd5b506107e161234d565b6040518082815260200191505060405180910390f35b34801561080357600080fd5b5061085a6004803603606081101561081a57600080fd5b810190808035906020019092919080359060200190929190803573ffffffffffffffffffffffffffffffffffffffff169060200190929190505050612353565b005b34801561086857600080fd5b506108956004803603602081101561087f57600080fd5b81019080803590602001909291905050506124dc565b60405180858152602001806020018060200180602001848103845287818151815260200191508051906020019080838360005b838110156108e35780820151818401526020810190506108c8565b50505050905090810190601f1680156109105780820380516001836020036101000a031916815260200191505b50848103835286818151815260200191508051906020019080838360005b8381101561094957808201518184015260208101905061092e565b50505050905090810190601f1680156109765780820380516001836020036101000a031916815260200191505b50848103825285818151815260200191508051906020019060200280838360005b838110156109b2578082015181840152602081019050610997565b5050505090500197505050505050505060405180910390f35b3480156109d757600080fd5b50610a1a600480360360208110156109ee57600080fd5b81019080803573ffffffffffffffffffffffffffffffffffffffff1690602001909291905050506126d5565b604051808481526020018060200180602001838103835285818151815260200191508051906020019080838360005b83811015610a64578082015181840152602081019050610a49565b50505050905090810190601f168015610a915780820380516001836020036101000a031916815260200191505b50838103825284818151815260200191508051906020019080838360005b83811015610aca578082015181840152602081019050610aaf565b50505050905090810190601f168015610af75780820380516001836020036101000a031916815260200191505b509550505050505060405180910390f35b348015610b1457600080fd5b50610b1d61282f565b6040518082815260200191505060405180910390f35b348015610b3f57600080fd5b50610b8260048036036020811015610b5657600080fd5b81019080803573ffffffffffffffffffffffffffffffffffffffff169060200190929190505050612835565b604051808481526020018060200180602001838103835285818151815260200191508051906020019080838360005b83811015610bcc578082015181840152602081019050610bb1565b50505050905090810190601f168015610bf95780820380516001836020036101000a031916815260200191505b50838103825284818151815260200191508051906020019080838360005b83811015610c32578082015181840152602081019050610c17565b50505050905090810190601f168015610c5f5780820380516001836020036101000a031916815260200191505b509550505050505060405180910390f35b348015610c7c57600080fd5b50610cc960048036036040811015610c9357600080fd5b8101908080359060200190929190803573ffffffffffffffffffffffffffffffffffffffff16906020019092919050505061298f565b005b348015610cd757600080fd5b50610edf60048036036080811015610cee57600080fd5b8101908080359060200190640100000000811115610d0b57600080fd5b820183602082011115610d1d57600080fd5b80359060200191846001830284011164010000000083111715610d3f57600080fd5b91908080601f016020809104026020016040519081016040528093929190818152602001838380828437600081840152601f19601f820116905080830192505050505050509192919290803573ffffffffffffffffffffffffffffffffffffffff16906020019092919080359060200190640100000000811115610dc257600080fd5b820183602082011115610dd457600080fd5b80359060200191846001830284011164010000000083111715610df657600080fd5b91908080601f016020809104026020016040519081016040528093929190818152602001838380828437600081840152601f19601f82011690508083019250505050505050919291929080359060200190640100000000811115610e5957600080fd5b820183602082011115610e6b57600080fd5b80359060200191846001830284011164010000000083111715610e8d57600080fd5b91908080601f016020809104026020016040519081016040528093929190818152602001838380828437600081840152601f19601f8201169050808301925050505050505091929192905050506129ff565b6040518082815260200191505060405180910390f35b348015610f0157600080fd5b50610f4e60048036036040811015610f1857600080fd5b8101908080359060200190929190803573ffffffffffffffffffffffffffffffffffffffff169060200190929190505050612f89565b005b348015610f5c57600080fd5b50610f9360048036036040811015610f7357600080fd5b8101908080359060200190929190803590602001909291905050506130f3565b60405180868152602001806020018060200185151515158152602001848152602001838103835287818151815260200191508051906020019080838360005b83811015610fed578082015181840152602081019050610fd2565b50505050905090810190601f16801561101a5780820380516001836020036101000a031916815260200191505b50838103825286818151815260200191508051906020019080838360005b83811015611053578082015181840152602081019050611038565b50505050905090810190601f1680156110805780820380516001836020036101000a031916815260200191505b5097505050505050505060405180910390f35b34801561109f57600080fd5b506110a8613329565b6040518082815260200191505060405180910390f35b3480156110ca57600080fd5b506110f7600480360360208110156110e157600080fd5b810190808035906020019092919050505061332f565b604051808481526020018060200180602001838103835285818151815260200191508051906020019080838360005b83811015611141578082015181840152602081019050611126565b50505050905090810190601f16801561116e5780820380516001836020036101000a031916815260200191505b50838103825284818151815260200191508051906020019080838360005b838110156111a757808201518184015260208101905061118c565b50505050905090810190601f1680156111d45780820380516001836020036101000a031916815260200191505b509550505050505060405180910390f35b3480156111f157600080fd5b5061136c6004803603608081101561120857600080fd5b81019080803590602001909291908035906020019064010000000081111561122f57600080fd5b82018360208201111561124157600080fd5b8035906020019184600183028401116401000000008311171561126357600080fd5b91908080601f016020809104026020016040519081016040528093929190818152602001838380828437600081840152601f19601f820116905080830192505050505050509192919290803590602001906401000000008111156112c657600080fd5b8201836020820111156112d857600080fd5b803590602001918460018302840111640100000000831117156112fa57600080fd5b91908080601f016020809104026020016040519081016040528093929190818152602001838380828437600081840152601f19601f820116905080830192505050505050509192919290803573ffffffffffffffffffffffffffffffffffffffff169060200190929190505050613489565b005b60035481565b6009602052806000526040600020600091509050806000015490806001018054600181600116156101000203166002900480601f0160208091040260200160405190810160405280929190818152602001828054600181600116156101000203166002900480156114265780601f106113fb57610100808354040283529160200191611426565b820191906000526020600020905b81548152906001019060200180831161140957829003601f168201915b505050505090806002018054600181600116156101000203166002900480601f0160208091040260200160405190810160405280929190818152602001828054600181600116156101000203166002900480156114c45780601f10611499576101008083540402835291602001916114c4565b820191906000526020600020905b8154815290600101906020018083116114a757829003601f168201915b5050505050905083565b60006060806060600054600560008773ffffffffffffffffffffffffffffffffffffffff1673ffffffffffffffffffffffffffffffffffffffff168152602001908152602001600020600001541115801561156c57506000600560008773ffffffffffffffffffffffffffffffffffffffff1673ffffffffffffffffffffffffffffffffffffffff1681526020019081526020016000206000015414155b1561181157600560008673ffffffffffffffffffffffffffffffffffffffff1673ffffffffffffffffffffffffffffffffffffffff16815260200190815260200160002060000154600560008773ffffffffffffffffffffffffffffffffffffffff1673ffffffffffffffffffffffffffffffffffffffff168152602001908152602001600020600101600560008873ffffffffffffffffffffffffffffffffffffffff1673ffffffffffffffffffffffffffffffffffffffff168152602001908152602001600020600201600560008973ffffffffffffffffffffffffffffffffffffffff1673ffffffffffffffffffffffffffffffffffffffff168152602001908152602001600020600301828054600181600116156101000203166002900480601f01602080910402602001604051908101604052809291908181526020018280546001816001161561010002031660029004801561170f5780601f106116e45761010080835404028352916020019161170f565b820191906000526020600020905b8154815290600101906020018083116116f257829003601f168201915b50505050509250818054600181600116156101000203166002900480601f0160208091040260200160405190810160405280929190818152602001828054600181600116156101000203166002900480156117ab5780601f10611780576101008083540402835291602001916117ab565b820191906000526020600020905b81548152906001019060200180831161178e57829003601f168201915b50505050509150808054806020026020016040519081016040528092919081815260200182805480156117fd57602002820191906000526020600020905b8154815260200190600101908083116117e9575b505050505090509350935093509350611de9565b600154600760008773ffffffffffffffffffffffffffffffffffffffff1673ffffffffffffffffffffffffffffffffffffffff16815260200190815260200160002060000154111580156118a857506000600760008773ffffffffffffffffffffffffffffffffffffffff1673ffffffffffffffffffffffffffffffffffffffff1681526020019081526020016000206000015414155b15611b4d57600760008673ffffffffffffffffffffffffffffffffffffffff1673ffffffffffffffffffffffffffffffffffffffff16815260200190815260200160002060000154600760008773ffffffffffffffffffffffffffffffffffffffff1673ffffffffffffffffffffffffffffffffffffffff168152602001908152602001600020600101600760008873ffffffffffffffffffffffffffffffffffffffff1673ffffffffffffffffffffffffffffffffffffffff168152602001908152602001600020600201600760008973ffffffffffffffffffffffffffffffffffffffff1673ffffffffffffffffffffffffffffffffffffffff168152602001908152602001600020600301828054600181600116156101000203166002900480601f016020809104026020016040519081016040528092919081815260200182805460018160011615610100020316600290048015611a4b5780601f10611a2057610100808354040283529160200191611a4b565b820191906000526020600020905b815481529060010190602001808311611a2e57829003601f168201915b50505050509250818054600181600116156101000203166002900480601f016020809104026020016040519081016040528092919081815260200182805460018160011615610100020316600290048015611ae75780601f10611abc57610100808354040283529160200191611ae7565b820191906000526020600020905b815481529060010190602001808311611aca57829003601f168201915b5050505050915080805480602002602001604051908101604052809291908181526020018280548015611b3957602002820191906000526020600020905b815481526020019060010190808311611b25575b505050505090509350935093509350611de9565b600760008673ffffffffffffffffffffffffffffffffffffffff1673ffffffffffffffffffffffffffffffffffffffff16815260200190815260200160002060000154600760008773ffffffffffffffffffffffffffffffffffffffff1673ffffffffffffffffffffffffffffffffffffffff168152602001908152602001600020600101600760008873ffffffffffffffffffffffffffffffffffffffff1673ffffffffffffffffffffffffffffffffffffffff168152602001908152602001600020600201600760008973ffffffffffffffffffffffffffffffffffffffff1673ffffffffffffffffffffffffffffffffffffffff168152602001908152602001600020600301828054600181600116156101000203166002900480601f016020809104026020016040519081016040528092919081815260200182805460018160011615610100020316600290048015611ceb5780601f10611cc057610100808354040283529160200191611ceb565b820191906000526020600020905b815481529060010190602001808311611cce57829003601f168201915b50505050509250818054600181600116156101000203166002900480601f016020809104026020016040519081016040528092919081815260200182805460018160011615610100020316600290048015611d875780601f10611d5c57610100808354040283529160200191611d87565b820191906000526020600020905b815481529060010190602001808311611d6a57829003601f168201915b5050505050915080805480602002602001604051908101604052809291908181526020018280548015611dd957602002820191906000526020600020905b815481526020019060010190808311611dc5575b5050505050905093509350935093505b9193509193565b6006602052806000526040600020600091509050806000015490806001018054600181600116156101000203166002900480601f016020809104026020016040519081016040528092919081815260200182805460018160011615610100020316600290048015611ea25780601f10611e7757610100808354040283529160200191611ea2565b820191906000526020600020905b815481529060010190602001808311611e8557829003601f168201915b505050505090806002018054600181600116156101000203166002900480601f016020809104026020016040519081016040528092919081815260200182805460018160011615610100020316600290048015611f405780601f10611f1557610100808354040283529160200191611f40565b820191906000526020600020905b815481529060010190602001808311611f2357829003601f168201915b5050505050905083565b60006060806060600760008673ffffffffffffffffffffffffffffffffffffffff1673ffffffffffffffffffffffffffffffffffffffff16815260200190815260200160002060000154600760008773ffffffffffffffffffffffffffffffffffffffff1673ffffffffffffffffffffffffffffffffffffffff168152602001908152602001600020600101600760008873ffffffffffffffffffffffffffffffffffffffff1673ffffffffffffffffffffffffffffffffffffffff168152602001908152602001600020600201600760008973ffffffffffffffffffffffffffffffffffffffff1673ffffffffffffffffffffffffffffffffffffffff168152602001908152602001600020600301828054600181600116156101000203166002900480601f0160208091040260200160405190810160405280929190818152602001828054600181600116156101000203166002900480156120ef5780601f106120c4576101008083540402835291602001916120ef565b820191906000526020600020905b8154815290600101906020018083116120d257829003601f168201915b50505050509250818054600181600116156101000203166002900480601f01602080910402602001604051908101604052809291908181526020018280546001816001161561010002031660029004801561218b5780601f106121605761010080835404028352916020019161218b565b820191906000526020600020905b81548152906001019060200180831161216e57829003601f168201915b50505050509150808054806020026020016040519081016040528092919081815260200182805480156121dd57602002820191906000526020600020905b8154815260200190600101908083116121c9575b5050505050905093509350935093509193509193565b6004602052806000526040600020600091509050806000015490806001018054600181600116156101000203166002900480601f0160208091040260200160405190810160405280929190818152602001828054600181600116156101000203166002900480156122a55780601f1061227a576101008083540402835291602001916122a5565b820191906000526020600020905b81548152906001019060200180831161228857829003601f168201915b505050505090806002018054600181600116156101000203166002900480601f0160208091040260200160405190810160405280929190818152602001828054600181600116156101000203166002900480156123435780601f1061231857610100808354040283529160200191612343565b820191906000526020600020905b81548152906001019060200180831161232657829003601f168201915b5050505050905083565b60015481565b81600560008373ffffffffffffffffffffffffffffffffffffffff1673ffffffffffffffffffffffffffffffffffffffff1681526020019081526020016000206004016000858152602001908152602001600020600301819055506001600560008373ffffffffffffffffffffffffffffffffffffffff1673ffffffffffffffffffffffffffffffffffffffff168152602001908152602001600020600401600085815260200190815260200160002060010160006101000a81548160ff0219169083151502179055506000600560008373ffffffffffffffffffffffffffffffffffffffff1673ffffffffffffffffffffffffffffffffffffffff1681526020019081526020016000206000015490508260046000838152602001908152602001600020600401600086815260200190815260200160002060030181905550600160046000838152602001908152602001600020600401600086815260200190815260200160002060010160006101000a81548160ff02191690831515021790555050505050565b600060608060606004600086815260200190815260200160002060000154600460008781526020019081526020016000206001016004600088815260200190815260200160002060020160046000898152602001908152602001600020600301828054600181600116156101000203166002900480601f0160208091040260200160405190810160405280929190818152602001828054600181600116156101000203166002900480156125d15780601f106125a6576101008083540402835291602001916125d1565b820191906000526020600020905b8154815290600101906020018083116125b457829003601f168201915b50505050509250818054600181600116156101000203166002900480601f01602080910402602001604051908101604052809291908181526020018280546001816001161561010002031660029004801561266d5780601f106126425761010080835404028352916020019161266d565b820191906000526020600020905b81548152906001019060200180831161265057829003601f168201915b50505050509150808054806020026020016040519081016040528092919081815260200182805480156126bf57602002820191906000526020600020905b8154815260200190600101908083116126ab575b5050505050905093509350935093509193509193565b6005602052806000526040600020600091509050806000015490806001018054600181600116156101000203166002900480601f0160208091040260200160405190810160405280929190818152602001828054600181600116156101000203166002900480156127875780601f1061275c57610100808354040283529160200191612787565b820191906000526020600020905b81548152906001019060200180831161276a57829003601f168201915b505050505090806002018054600181600116156101000203166002900480601f0160208091040260200160405190810160405280929190818152602001828054600181600116156101000203166002900480156128255780601f106127fa57610100808354040283529160200191612825565b820191906000526020600020905b81548152906001019060200180831161280857829003601f168201915b5050505050905083565b60025481565b6007602052806000526040600020600091509050806000015490806001018054600181600116156101000203166002900480601f0160208091040260200160405190810160405280929190818152602001828054600181600116156101000203166002900480156128e75780601f106128bc576101008083540402835291602001916128e7565b820191906000526020600020905b8154815290600101906020018083116128ca57829003601f168201915b505050505090806002018054600181600116156101000203166002900480601f0160208091040260200160405190810160405280929190818152602001828054600181600116156101000203166002900480156129855780601f1061295a57610100808354040283529160200191612985565b820191906000526020600020905b81548152906001019060200180831161296857829003601f168201915b5050505050905083565b600760008273ffffffffffffffffffffffffffffffffffffffff1673ffffffffffffffffffffffffffffffffffffffff1681526020019081526020016000206003018290806001815401808255809150509060018203906000526020600020016000909192909190915055505050565b600060036000815460010191905081905550612a596040805190810160405280600781526020017f53747564656e74000000000000000000000000000000000000000000000000008152508361362b90919063ffffffff16565b15612bdf576000808154600101919050819055508460046000805481526020019081526020016000206001019080519060200190612a98929190613907565b508260046000805481526020019081526020016000206002019080519060200190612ac4929190613907565b5060005460046000805481526020019081526020016000206000018190555084600560008673ffffffffffffffffffffffffffffffffffffffff1673ffffffffffffffffffffffffffffffffffffffff1681526020019081526020016000206001019080519060200190612b39929190613907565b5082600560008673ffffffffffffffffffffffffffffffffffffffff1673ffffffffffffffffffffffffffffffffffffffff1681526020019081526020016000206002019080519060200190612b90929190613907565b50600054600560008673ffffffffffffffffffffffffffffffffffffffff1673ffffffffffffffffffffffffffffffffffffffff16815260200190815260200160002060000181905550612f81565b612c276040805190810160405280600b81526020017f496e737469747574696f6e0000000000000000000000000000000000000000008152508361362b90919063ffffffff16565b15612db15760016000815460010191905081905550846006600060015481526020019081526020016000206001019080519060200190612c68929190613907565b50826006600060015481526020019081526020016000206002019080519060200190612c95929190613907565b506000546006600060015481526020019081526020016000206000018190555084600760008673ffffffffffffffffffffffffffffffffffffffff1673ffffffffffffffffffffffffffffffffffffffff1681526020019081526020016000206001019080519060200190612d0b929190613907565b5082600760008673ffffffffffffffffffffffffffffffffffffffff1673ffffffffffffffffffffffffffffffffffffffff1681526020019081526020016000206002019080519060200190612d62929190613907565b50600154600760008673ffffffffffffffffffffffffffffffffffffffff1673ffffffffffffffffffffffffffffffffffffffff16815260200190815260200160002060000181905550612f80565b612df96040805190810160405280600781526020017f436f6d70616e79000000000000000000000000000000000000000000000000008152508361362b90919063ffffffff16565b15612f7f5760026000815460010191905081905550846008600060025481526020019081526020016000206001019080519060200190612e3a929190613907565b50826008600060025481526020019081526020016000206002019080519060200190612e67929190613907565b506000546008600060025481526020019081526020016000206000018190555084600960008673ffffffffffffffffffffffffffffffffffffffff1673ffffffffffffffffffffffffffffffffffffffff1681526020019081526020016000206001019080519060200190612edd929190613907565b5082600960008673ffffffffffffffffffffffffffffffffffffffff1673ffffffffffffffffffffffffffffffffffffffff1681526020019081526020016000206002019080519060200190612f34929190613907565b50600154600960008673ffffffffffffffffffffffffffffffffffffffff1673ffffffffffffffffffffffffffffffffffffffff168152602001908152602001600020600001819055505b5b5b949350505050565b600560008273ffffffffffffffffffffffffffffffffffffffff1673ffffffffffffffffffffffffffffffffffffffff1681526020019081526020016000206003018290806001815401808255809150509060018203906000526020600020016000909192909190915055506000600560008373ffffffffffffffffffffffffffffffffffffffff1673ffffffffffffffffffffffffffffffffffffffff168152602001908152602001600020600001549050600460008281526020019081526020016000206003018390806001815401808255809150509060018203906000526020600020016000909192909190915055508260046000838152602001908152602001600020600401600085815260200190815260200160002060000181905550600060046000838152602001908152602001600020600401600085815260200190815260200160002060010160006101000a81548160ff021916908315150217905550505050565b600060608060008060046000888152602001908152602001600020600401600087815260200190815260200160002060000154600460008981526020019081526020016000206004016000888152602001908152602001600020600401600460008a81526020019081526020016000206004016000898152602001908152602001600020600201600460008b815260200190815260200160002060040160008a815260200190815260200160002060010160009054906101000a900460ff16600460008c815260200190815260200160002060040160008b815260200190815260200160002060030154838054600181600116156101000203166002900480601f0160208091040260200160405190810160405280929190818152602001828054600181600116156101000203166002900480156132725780601f1061324757610100808354040283529160200191613272565b820191906000526020600020905b81548152906001019060200180831161325557829003601f168201915b50505050509350828054600181600116156101000203166002900480601f01602080910402602001604051908101604052809291908181526020018280546001816001161561010002031660029004801561330e5780601f106132e35761010080835404028352916020019161330e565b820191906000526020600020905b8154815290600101906020018083116132f157829003601f168201915b50505050509250945094509450945094509295509295909350565b60005481565b6008602052806000526040600020600091509050806000015490806001018054600181600116156101000203166002900480601f0160208091040260200160405190810160405280929190818152602001828054600181600116156101000203166002900480156133e15780601f106133b6576101008083540402835291602001916133e1565b820191906000526020600020905b8154815290600101906020018083116133c457829003601f168201915b505050505090806002018054600181600116156101000203166002900480601f01602080910402602001604051908101604052809291908181526020018280546001816001161561010002031660029004801561347f5780601f106134545761010080835404028352916020019161347f565b820191906000526020600020905b81548152906001019060200180831161346257829003601f168201915b5050505050905083565b82600560008373ffffffffffffffffffffffffffffffffffffffff1673ffffffffffffffffffffffffffffffffffffffff168152602001908152602001600020600401600086815260200190815260200160002060020190805190602001906134f3929190613907565b5081600560008373ffffffffffffffffffffffffffffffffffffffff1673ffffffffffffffffffffffffffffffffffffffff1681526020019081526020016000206004016000868152602001908152602001600020600401908051906020019061355e929190613907565b506000600560008373ffffffffffffffffffffffffffffffffffffffff1673ffffffffffffffffffffffffffffffffffffffff1681526020019081526020016000206000015490508360046000838152602001908152602001600020600401600087815260200190815260200160002060020190805190602001906135e4929190613907565b50826004600083815260200190815260200160002060040160008781526020019081526020016000206004019080519060200190613623929190613907565b505050505050565b6000806136388484613641565b14905092915050565b600060608390506060839050600082519050808251101561366157815190505b60008090505b818110156138ad57828181518110151561367d57fe5b9060200101517f010000000000000000000000000000000000000000000000000000000000000090047f0100000000000000000000000000000000000000000000000000000000000000027effffffffffffffffffffffffffffffffffffffffffffffffffffffffffffff191684828151811015156136f857fe5b9060200101517f010000000000000000000000000000000000000000000000000000000000000090047f0100000000000000000000000000000000000000000000000000000000000000027effffffffffffffffffffffffffffffffffffffffffffffffffffffffffffff19161015613797577fffffffffffffffffffffffffffffffffffffffffffffffffffffffffffffffff945050505050613901565b82818151811015156137a557fe5b9060200101517f010000000000000000000000000000000000000000000000000000000000000090047f0100000000000000000000000000000000000000000000000000000000000000027effffffffffffffffffffffffffffffffffffffffffffffffffffffffffffff1916848281518110151561382057fe5b9060200101517f010000000000000000000000000000000000000000000000000000000000000090047f0100000000000000000000000000000000000000000000000000000000000000027effffffffffffffffffffffffffffffffffffffffffffffffffffffffffffff191611156138a0576001945050505050613901565b8080600101915050613667565b508151835110156138e3577fffffffffffffffffffffffffffffffffffffffffffffffffffffffffffffffff9350505050613901565b8151835111156138f95760019350505050613901565b600093505050505b92915050565b828054600181600116156101000203166002900490600052602060002090601f016020900481019282601f1061394857805160ff1916838001178555613976565b82800160010185558215613976579182015b8281111561397557825182559160200191906001019061395a565b5b5090506139839190613987565b5090565b6139a991905b808211156139a557600081600090555060010161398d565b5090565b9056fea165627a7a72305820b52acf926b99f47baa335356db442ad84ec6a72d6bad96909fbd03c936932f910029",
  "source": "pragma solidity ^0.5.0;\n\n    import {StringUtils} from './StringUtils.sol';\n\ncontract UserContract {\n\n    using StringUtils for string;\n\n    uint public studentCount = 0;\n    uint public instiCount = 0;\n    uint public companyCount = 0;\n    uint public userCount = 0;\n\n    struct CourseInfo{\n        uint courseId;\n        bool status;\n        string certificateHash;\n        uint marks;\n        string signature;\n    }\n\n    struct Student{\n        uint id;\n        string name;\n        string accountHash;\n        uint[] courses;\n        mapping(uint => CourseInfo) courseInfo;\n    }\n\n    struct Institution{\n        uint id;\n        string name;\n        string accountHash;\n        uint[] courses;\n    }\n\n    struct Company{\n        uint id;\n        string name;\n        string accountHash;\n    }\n\n    mapping(uint => Student) public student;\n    mapping(address => Student) public studentAcc;\n\n    mapping(uint => Institution) public institution;\n    mapping(address => Institution) public institutionAcc;\n\n    mapping(uint => Company) public company;\n    mapping(address => Company) public companyAcc;\n\n\n    function createUser(string memory _name, address _account, string memory _accountHash, string memory _userType) public returns(uint){\n        ++userCount;\n        if(_userType.equal(\"Student\")){\n            ++studentCount;\n            student[studentCount].name = _name;\n            student[studentCount].accountHash = _accountHash;\n            student[studentCount].id = studentCount;\n\n            studentAcc[_account].name = _name;\n            studentAcc[_account].accountHash = _accountHash;\n            studentAcc[_account].id = studentCount;\n        }\n        else if(_userType.equal(\"Institution\")){\n            ++instiCount;\n            institution[instiCount].name = _name;\n            institution[instiCount].accountHash = _accountHash;\n            institution[instiCount].id = studentCount;\n\n            institutionAcc[_account].name = _name;\n            institutionAcc[_account].accountHash = _accountHash;\n            institutionAcc[_account].id = instiCount;\n        }\n        else if(_userType.equal(\"Company\")){\n            ++companyCount;\n            company[companyCount].name = _name;\n            company[companyCount].accountHash = _accountHash;\n            company[companyCount].id = studentCount;\n\n            companyAcc[_account].name = _name;\n            companyAcc[_account].accountHash = _accountHash;\n            companyAcc[_account].id = instiCount;\n        }\n\n    }\n\n    /*function getUserCount() public view returns(uint) {\n        return userCount;\n    }\n\n    function getStudentCount() public view returns(uint) {\n        return studentCount;\n    }\n\n    function getCompanyCount() public view returns(uint) {\n        return companyCount;\n    }\n\n    function getInstitutionCount() public view returns(uint) {\n        return instiCount;\n    }\n\n    function getUser(uint _index) public view returns(uint, string memory, string memory, string memory){\n        return (user[_index].uid, user[_index].name, user[_index].accountHash, user[_index].userType);\n    }\n    */\n\n    function checkUser(address _index) public view returns(uint, string memory, string memory, uint [] memory){\n        if (studentAcc[_index].id<=studentCount && studentAcc[_index].id!=0){\n           return (studentAcc[_index].id, studentAcc[_index].name, studentAcc[_index].accountHash, studentAcc[_index].courses);\n        }\n        //else if (companyAcc[_index].id<=companyCount && companyAcc[_index].id!=0){\n         //   return true;\n        //}\n        else if (institutionAcc[_index].id<=instiCount && institutionAcc[_index].id!=0){\n          return (institutionAcc[_index].id, institutionAcc[_index].name, institutionAcc[_index].accountHash, institutionAcc[_index].courses);\n        }\n        else{\n           return (institutionAcc[_index].id, institutionAcc[_index].name, institutionAcc[_index].accountHash, institutionAcc[_index].courses);\n        }\n        //return (userAcc[_index].uid, userAcc[_index].name, userAcc[_index].accountHash, userAcc[_index].userType);\n    }\n\n    function addCourse(uint _courseId, address institutionAccount) public{\n        institutionAcc[institutionAccount].courses.push(_courseId);\n    }\n\n    function registerCourse(uint _courseId, address studentAccount) public{\n        studentAcc[studentAccount].courses.push(_courseId);\n        //StudentAcc storage s = studentAcc[studentAccount];\n\n        uint userId = studentAcc[studentAccount].id;\n\n        student[userId].courses.push(_courseId);\n        student[userId].courseInfo[_courseId].courseId = _courseId;\n        student[userId].courseInfo[_courseId].status = false;\n    }\n\n    function getDetails(address account) public view returns(uint, string memory, string memory, uint [] memory) {\n        return (institutionAcc[account].id, institutionAcc[account].name, institutionAcc[account].accountHash, institutionAcc[account].courses);\n    }\n\n\n    function getStudentDetails(uint index) public view returns(uint, string memory, string memory, uint [] memory) {\n        return (student[index].id, student[index].name, student[index].accountHash, student[index].courses);\n    }\n\n    function getCourseInfo(uint userId, uint _courseId) public view returns(uint, string memory, string memory, bool, uint){\n        return (student[userId].courseInfo[_courseId].courseId,student[userId].courseInfo[_courseId].signature , student[userId].courseInfo[_courseId].certificateHash, student[userId].courseInfo[_courseId].status, student[userId].courseInfo[_courseId].marks);\n    }\n\n    function submitAnswers(uint _courseId, uint _marks, address studentAccount) public {\n        studentAcc[studentAccount].courseInfo[_courseId].marks = _marks;\n        studentAcc[studentAccount].courseInfo[_courseId].status = true;\n        uint userId = studentAcc[studentAccount].id;\n\n        student[userId].courseInfo[_courseId].marks = _marks;\n        student[userId].courseInfo[_courseId].status = true;\n\n    }\n\n    function issueCertificate(uint _courseId, string memory _certificateHash, string memory _signature, address studentAccount) public{\n        studentAcc[studentAccount].courseInfo[_courseId].certificateHash = _certificateHash;\n        studentAcc[studentAccount].courseInfo[_courseId].signature = _signature;\n        uint userId = studentAcc[studentAccount].id;\n\n        student[userId].courseInfo[_courseId].certificateHash = _certificateHash;\n        student[userId].courseInfo[_courseId].signature = _signature;\n\n\n    }\n}\n",
  "sourcePath": "/home/arvindraj/Documents/Projects/ethlearn/contracts/UserContract.sol",
  "compiler": {
    "name": "solc",
    "version": "0.5.0+commit.1d4f565a.Emscripten.clang"
  },
  "schemaVersion": "3.0.1",
  "updatedAt": "2021-03-31T02:38:34.888Z",
  "devdoc": {
    "methods": {}
  },
  "userdoc": {
    "methods": {}
  }
}