{
  "contractName": "UserContract",
  "abi": [
    {
      "constant": true,
      "inputs": [],
      "name": "userCount",
      "outputs": [
        {
          "name": "",
          "type": "uint256"
        }
      ],
      "payable": false,
      "stateMutability": "view",
      "type": "function",
      "signature": "0x07973ccf"
    },
    {
      "constant": true,
      "inputs": [
        {
          "name": "",
          "type": "address"
        }
      ],
      "name": "companyAcc",
      "outputs": [
        {
          "name": "id",
          "type": "uint256"
        },
        {
          "name": "name",
          "type": "string"
        },
        {
          "name": "accountHash",
          "type": "string"
        }
      ],
      "payable": false,
      "stateMutability": "view",
      "type": "function",
      "signature": "0x0b665155"
    },
    {
      "constant": true,
      "inputs": [
        {
          "name": "",
          "type": "uint256"
        }
      ],
      "name": "institution",
      "outputs": [
        {
          "name": "id",
          "type": "uint256"
        },
        {
          "name": "name",
          "type": "string"
        },
        {
          "name": "accountHash",
          "type": "string"
        }
      ],
      "payable": false,
      "stateMutability": "view",
      "type": "function",
      "signature": "0x2eb78bf6"
    },
    {
      "constant": true,
      "inputs": [
        {
          "name": "",
          "type": "uint256"
        }
      ],
      "name": "student",
      "outputs": [
        {
          "name": "id",
          "type": "uint256"
        },
        {
          "name": "name",
          "type": "string"
        },
        {
          "name": "accountHash",
          "type": "string"
        }
      ],
      "payable": false,
      "stateMutability": "view",
      "type": "function",
      "signature": "0x35f34232"
    },
    {
      "constant": true,
      "inputs": [],
      "name": "instiCount",
      "outputs": [
        {
          "name": "",
          "type": "uint256"
        }
      ],
      "payable": false,
      "stateMutability": "view",
      "type": "function",
      "signature": "0x632b8bc2"
    },
    {
      "constant": true,
      "inputs": [
        {
          "name": "",
          "type": "address"
        }
      ],
      "name": "studentAcc",
      "outputs": [
        {
          "name": "id",
          "type": "uint256"
        },
        {
          "name": "name",
          "type": "string"
        },
        {
          "name": "accountHash",
          "type": "string"
        }
      ],
      "payable": false,
      "stateMutability": "view",
      "type": "function",
      "signature": "0x8bf06de9"
    },
    {
      "constant": true,
      "inputs": [],
      "name": "companyCount",
      "outputs": [
        {
          "name": "",
          "type": "uint256"
        }
      ],
      "payable": false,
      "stateMutability": "view",
      "type": "function",
      "signature": "0x8e75dd47"
    },
    {
      "constant": true,
      "inputs": [
        {
          "name": "",
          "type": "address"
        }
      ],
      "name": "institutionAcc",
      "outputs": [
        {
          "name": "id",
          "type": "uint256"
        },
        {
          "name": "name",
          "type": "string"
        },
        {
          "name": "accountHash",
          "type": "string"
        }
      ],
      "payable": false,
      "stateMutability": "view",
      "type": "function",
      "signature": "0x8fc3dc65"
    },
    {
      "constant": true,
      "inputs": [],
      "name": "studentCount",
      "outputs": [
        {
          "name": "",
          "type": "uint256"
        }
      ],
      "payable": false,
      "stateMutability": "view",
      "type": "function",
      "signature": "0xe581f9ee"
    },
    {
      "constant": true,
      "inputs": [
        {
          "name": "",
          "type": "uint256"
        }
      ],
      "name": "company",
      "outputs": [
        {
          "name": "id",
          "type": "uint256"
        },
        {
          "name": "name",
          "type": "string"
        },
        {
          "name": "accountHash",
          "type": "string"
        }
      ],
      "payable": false,
      "stateMutability": "view",
      "type": "function",
      "signature": "0xeacebba3"
    },
    {
      "constant": false,
      "inputs": [
        {
          "name": "_name",
          "type": "string"
        },
        {
          "name": "_account",
          "type": "address"
        },
        {
          "name": "_accountHash",
          "type": "string"
        },
        {
          "name": "_userType",
          "type": "string"
        }
      ],
      "name": "createUser",
      "outputs": [
        {
          "name": "",
          "type": "uint256"
        }
      ],
      "payable": false,
      "stateMutability": "nonpayable",
      "type": "function",
      "signature": "0xb1307ee4"
    },
    {
      "constant": true,
      "inputs": [
        {
          "name": "_index",
          "type": "address"
        }
      ],
      "name": "checkUser",
      "outputs": [
        {
          "name": "",
          "type": "uint256"
        },
        {
          "name": "",
          "type": "string"
        },
        {
          "name": "",
          "type": "string"
        },
        {
          "name": "",
          "type": "uint256[]"
        }
      ],
      "payable": false,
      "stateMutability": "view",
      "type": "function",
      "signature": "0x1e9d48cf"
    },
    {
      "constant": false,
      "inputs": [
        {
          "name": "_courseId",
          "type": "uint256"
        },
        {
          "name": "institutionAccount",
          "type": "address"
        }
      ],
      "name": "addCourse",
      "outputs": [],
      "payable": false,
      "stateMutability": "nonpayable",
      "type": "function",
      "signature": "0x92edfa89"
    },
    {
      "constant": false,
      "inputs": [
        {
          "name": "_courseId",
          "type": "uint256"
        },
        {
          "name": "studentAccount",
          "type": "address"
        }
      ],
      "name": "registerCourse",
      "outputs": [],
      "payable": false,
      "stateMutability": "nonpayable",
      "type": "function",
      "signature": "0xcaa5b84e"
    },
    {
      "constant": true,
      "inputs": [
        {
          "name": "id",
          "type": "uint256"
        }
      ],
      "name": "getInstituionDetails",
      "outputs": [
        {
          "name": "",
          "type": "uint256"
        },
        {
          "name": "",
          "type": "string"
        },
        {
          "name": "",
          "type": "string"
        },
        {
          "name": "",
          "type": "uint256[]"
        }
      ],
      "payable": false,
      "stateMutability": "view",
      "type": "function",
      "signature": "0xf216193b"
    },
    {
      "constant": true,
      "inputs": [
        {
          "name": "index",
          "type": "uint256"
        }
      ],
      "name": "getStudentDetails",
      "outputs": [
        {
          "name": "",
          "type": "uint256"
        },
        {
          "name": "",
          "type": "string"
        },
        {
          "name": "",
          "type": "string"
        },
        {
          "name": "",
          "type": "uint256[]"
        }
      ],
      "payable": false,
      "stateMutability": "view",
      "type": "function",
      "signature": "0x86a9b364"
    }
  ],
  "bytecode": "0x60806040526000805560006001556000600255600060035534801561002357600080fd5b50613075806100336000396000f3fe6080604052600436106100e6576000357c0100000000000000000000000000000000000000000000000000000000900463ffffffff16806307973ccf146100eb5780630b665155146101165780631e9d48cf146102535780632eb78bf6146103d857806335f34232146104ff578063632b8bc21461062657806386a9b364146106515780638bf06de9146107c05780638e75dd47146108fd5780638fc3dc651461092857806392edfa8914610a65578063b1307ee414610ac0578063caa5b84e14610cea578063e581f9ee14610d45578063eacebba314610d70578063f216193b14610e97575b600080fd5b3480156100f757600080fd5b50610100611006565b6040518082815260200191505060405180910390f35b34801561012257600080fd5b506101656004803603602081101561013957600080fd5b81019080803573ffffffffffffffffffffffffffffffffffffffff16906020019092919050505061100c565b604051808481526020018060200180602001838103835285818151815260200191508051906020019080838360005b838110156101af578082015181840152602081019050610194565b50505050905090810190601f1680156101dc5780820380516001836020036101000a031916815260200191505b50838103825284818151815260200191508051906020019080838360005b838110156102155780820151818401526020810190506101fa565b50505050905090810190601f1680156102425780820380516001836020036101000a031916815260200191505b509550505050505060405180910390f35b34801561025f57600080fd5b506102a26004803603602081101561027657600080fd5b81019080803573ffffffffffffffffffffffffffffffffffffffff169060200190929190505050611166565b60405180858152602001806020018060200180602001848103845287818151815260200191508051906020019080838360005b838110156102f05780820151818401526020810190506102d5565b50505050905090810190601f16801561031d5780820380516001836020036101000a031916815260200191505b50848103835286818151815260200191508051906020019080838360005b8381101561035657808201518184015260208101905061033b565b50505050905090810190601f1680156103835780820380516001836020036101000a031916815260200191505b50848103825285818151815260200191508051906020019060200280838360005b838110156103bf5780820151818401526020810190506103a4565b5050505090500197505050505050505060405180910390f35b3480156103e457600080fd5b50610411600480360360208110156103fb57600080fd5b8101908080359060200190929190505050611a88565b604051808481526020018060200180602001838103835285818151815260200191508051906020019080838360005b8381101561045b578082015181840152602081019050610440565b50505050905090810190601f1680156104885780820380516001836020036101000a031916815260200191505b50838103825284818151815260200191508051906020019080838360005b838110156104c15780820151818401526020810190506104a6565b50505050905090810190601f1680156104ee5780820380516001836020036101000a031916815260200191505b509550505050505060405180910390f35b34801561050b57600080fd5b506105386004803603602081101561052257600080fd5b8101908080359060200190929190505050611be2565b604051808481526020018060200180602001838103835285818151815260200191508051906020019080838360005b83811015610582578082015181840152602081019050610567565b50505050905090810190601f1680156105af5780820380516001836020036101000a031916815260200191505b50838103825284818151815260200191508051906020019080838360005b838110156105e85780820151818401526020810190506105cd565b50505050905090810190601f1680156106155780820380516001836020036101000a031916815260200191505b509550505050505060405180910390f35b34801561063257600080fd5b5061063b611d3c565b6040518082815260200191505060405180910390f35b34801561065d57600080fd5b5061068a6004803603602081101561067457600080fd5b8101908080359060200190929190505050611d42565b60405180858152602001806020018060200180602001848103845287818151815260200191508051906020019080838360005b838110156106d85780820151818401526020810190506106bd565b50505050905090810190601f1680156107055780820380516001836020036101000a031916815260200191505b50848103835286818151815260200191508051906020019080838360005b8381101561073e578082015181840152602081019050610723565b50505050905090810190601f16801561076b5780820380516001836020036101000a031916815260200191505b50848103825285818151815260200191508051906020019060200280838360005b838110156107a757808201518184015260208101905061078c565b5050505090500197505050505050505060405180910390f35b3480156107cc57600080fd5b5061080f600480360360208110156107e357600080fd5b81019080803573ffffffffffffffffffffffffffffffffffffffff169060200190929190505050611f3b565b604051808481526020018060200180602001838103835285818151815260200191508051906020019080838360005b8381101561085957808201518184015260208101905061083e565b50505050905090810190601f1680156108865780820380516001836020036101000a031916815260200191505b50838103825284818151815260200191508051906020019080838360005b838110156108bf5780820151818401526020810190506108a4565b50505050905090810190601f1680156108ec5780820380516001836020036101000a031916815260200191505b509550505050505060405180910390f35b34801561090957600080fd5b50610912612095565b6040518082815260200191505060405180910390f35b34801561093457600080fd5b506109776004803603602081101561094b57600080fd5b81019080803573ffffffffffffffffffffffffffffffffffffffff16906020019092919050505061209b565b604051808481526020018060200180602001838103835285818151815260200191508051906020019080838360005b838110156109c15780820151818401526020810190506109a6565b50505050905090810190601f1680156109ee5780820380516001836020036101000a031916815260200191505b50838103825284818151815260200191508051906020019080838360005b83811015610a27578082015181840152602081019050610a0c565b50505050905090810190601f168015610a545780820380516001836020036101000a031916815260200191505b509550505050505060405180910390f35b348015610a7157600080fd5b50610abe60048036036040811015610a8857600080fd5b8101908080359060200190929190803573ffffffffffffffffffffffffffffffffffffffff1690602001909291905050506121f5565b005b348015610acc57600080fd5b50610cd460048036036080811015610ae357600080fd5b8101908080359060200190640100000000811115610b0057600080fd5b820183602082011115610b1257600080fd5b80359060200191846001830284011164010000000083111715610b3457600080fd5b91908080601f016020809104026020016040519081016040528093929190818152602001838380828437600081840152601f19601f820116905080830192505050505050509192919290803573ffffffffffffffffffffffffffffffffffffffff16906020019092919080359060200190640100000000811115610bb757600080fd5b820183602082011115610bc957600080fd5b80359060200191846001830284011164010000000083111715610beb57600080fd5b91908080601f016020809104026020016040519081016040528093929190818152602001838380828437600081840152601f19601f82011690508083019250505050505050919291929080359060200190640100000000811115610c4e57600080fd5b820183602082011115610c6057600080fd5b80359060200191846001830284011164010000000083111715610c8257600080fd5b91908080601f016020809104026020016040519081016040528093929190818152602001838380828437600081840152601f19601f8201169050808301925050505050505091929192905050506122ed565b6040518082815260200191505060405180910390f35b348015610cf657600080fd5b50610d4360048036036040811015610d0d57600080fd5b8101908080359060200190929190803573ffffffffffffffffffffffffffffffffffffffff169060200190929190505050612877565b005b348015610d5157600080fd5b50610d5a61296f565b6040518082815260200191505060405180910390f35b348015610d7c57600080fd5b50610da960048036036020811015610d9357600080fd5b8101908080359060200190929190505050612975565b604051808481526020018060200180602001838103835285818151815260200191508051906020019080838360005b83811015610df3578082015181840152602081019050610dd8565b50505050905090810190601f168015610e205780820380516001836020036101000a031916815260200191505b50838103825284818151815260200191508051906020019080838360005b83811015610e59578082015181840152602081019050610e3e565b50505050905090810190601f168015610e865780820380516001836020036101000a031916815260200191505b509550505050505060405180910390f35b348015610ea357600080fd5b50610ed060048036036020811015610eba57600080fd5b8101908080359060200190929190505050612acf565b60405180858152602001806020018060200180602001848103845287818151815260200191508051906020019080838360005b83811015610f1e578082015181840152602081019050610f03565b50505050905090810190601f168015610f4b5780820380516001836020036101000a031916815260200191505b50848103835286818151815260200191508051906020019080838360005b83811015610f84578082015181840152602081019050610f69565b50505050905090810190601f168015610fb15780820380516001836020036101000a031916815260200191505b50848103825285818151815260200191508051906020019060200280838360005b83811015610fed578082015181840152602081019050610fd2565b5050505090500197505050505050505060405180910390f35b60035481565b6009602052806000526040600020600091509050806000015490806001018054600181600116156101000203166002900480601f0160208091040260200160405190810160405280929190818152602001828054600181600116156101000203166002900480156110be5780601f10611093576101008083540402835291602001916110be565b820191906000526020600020905b8154815290600101906020018083116110a157829003601f168201915b505050505090806002018054600181600116156101000203166002900480601f01602080910402602001604051908101604052809291908181526020018280546001816001161561010002031660029004801561115c5780601f106111315761010080835404028352916020019161115c565b820191906000526020600020905b81548152906001019060200180831161113f57829003601f168201915b5050505050905083565b60006060806060600054600560008773ffffffffffffffffffffffffffffffffffffffff1673ffffffffffffffffffffffffffffffffffffffff168152602001908152602001600020600001541115801561120457506000600560008773ffffffffffffffffffffffffffffffffffffffff1673ffffffffffffffffffffffffffffffffffffffff1681526020019081526020016000206000015414155b156114a957600560008673ffffffffffffffffffffffffffffffffffffffff1673ffffffffffffffffffffffffffffffffffffffff16815260200190815260200160002060000154600560008773ffffffffffffffffffffffffffffffffffffffff1673ffffffffffffffffffffffffffffffffffffffff168152602001908152602001600020600101600560008873ffffffffffffffffffffffffffffffffffffffff1673ffffffffffffffffffffffffffffffffffffffff168152602001908152602001600020600201600560008973ffffffffffffffffffffffffffffffffffffffff1673ffffffffffffffffffffffffffffffffffffffff168152602001908152602001600020600301828054600181600116156101000203166002900480601f0160208091040260200160405190810160405280929190818152602001828054600181600116156101000203166002900480156113a75780601f1061137c576101008083540402835291602001916113a7565b820191906000526020600020905b81548152906001019060200180831161138a57829003601f168201915b50505050509250818054600181600116156101000203166002900480601f0160208091040260200160405190810160405280929190818152602001828054600181600116156101000203166002900480156114435780601f1061141857610100808354040283529160200191611443565b820191906000526020600020905b81548152906001019060200180831161142657829003601f168201915b505050505091508080548060200260200160405190810160405280929190818152602001828054801561149557602002820191906000526020600020905b815481526020019060010190808311611481575b505050505090509350935093509350611a81565b600154600760008773ffffffffffffffffffffffffffffffffffffffff1673ffffffffffffffffffffffffffffffffffffffff168152602001908152602001600020600001541115801561154057506000600760008773ffffffffffffffffffffffffffffffffffffffff1673ffffffffffffffffffffffffffffffffffffffff1681526020019081526020016000206000015414155b156117e557600760008673ffffffffffffffffffffffffffffffffffffffff1673ffffffffffffffffffffffffffffffffffffffff16815260200190815260200160002060000154600760008773ffffffffffffffffffffffffffffffffffffffff1673ffffffffffffffffffffffffffffffffffffffff168152602001908152602001600020600101600760008873ffffffffffffffffffffffffffffffffffffffff1673ffffffffffffffffffffffffffffffffffffffff168152602001908152602001600020600201600760008973ffffffffffffffffffffffffffffffffffffffff1673ffffffffffffffffffffffffffffffffffffffff168152602001908152602001600020600301828054600181600116156101000203166002900480601f0160208091040260200160405190810160405280929190818152602001828054600181600116156101000203166002900480156116e35780601f106116b8576101008083540402835291602001916116e3565b820191906000526020600020905b8154815290600101906020018083116116c657829003601f168201915b50505050509250818054600181600116156101000203166002900480601f01602080910402602001604051908101604052809291908181526020018280546001816001161561010002031660029004801561177f5780601f106117545761010080835404028352916020019161177f565b820191906000526020600020905b81548152906001019060200180831161176257829003601f168201915b50505050509150808054806020026020016040519081016040528092919081815260200182805480156117d157602002820191906000526020600020905b8154815260200190600101908083116117bd575b505050505090509350935093509350611a81565b600760008673ffffffffffffffffffffffffffffffffffffffff1673ffffffffffffffffffffffffffffffffffffffff16815260200190815260200160002060000154600760008773ffffffffffffffffffffffffffffffffffffffff1673ffffffffffffffffffffffffffffffffffffffff168152602001908152602001600020600101600760008873ffffffffffffffffffffffffffffffffffffffff1673ffffffffffffffffffffffffffffffffffffffff168152602001908152602001600020600201600760008973ffffffffffffffffffffffffffffffffffffffff1673ffffffffffffffffffffffffffffffffffffffff168152602001908152602001600020600301828054600181600116156101000203166002900480601f0160208091040260200160405190810160405280929190818152602001828054600181600116156101000203166002900480156119835780601f1061195857610100808354040283529160200191611983565b820191906000526020600020905b81548152906001019060200180831161196657829003601f168201915b50505050509250818054600181600116156101000203166002900480601f016020809104026020016040519081016040528092919081815260200182805460018160011615610100020316600290048015611a1f5780601f106119f457610100808354040283529160200191611a1f565b820191906000526020600020905b815481529060010190602001808311611a0257829003601f168201915b5050505050915080805480602002602001604051908101604052809291908181526020018280548015611a7157602002820191906000526020600020905b815481526020019060010190808311611a5d575b5050505050905093509350935093505b9193509193565b6006602052806000526040600020600091509050806000015490806001018054600181600116156101000203166002900480601f016020809104026020016040519081016040528092919081815260200182805460018160011615610100020316600290048015611b3a5780601f10611b0f57610100808354040283529160200191611b3a565b820191906000526020600020905b815481529060010190602001808311611b1d57829003601f168201915b505050505090806002018054600181600116156101000203166002900480601f016020809104026020016040519081016040528092919081815260200182805460018160011615610100020316600290048015611bd85780601f10611bad57610100808354040283529160200191611bd8565b820191906000526020600020905b815481529060010190602001808311611bbb57829003601f168201915b5050505050905083565b6004602052806000526040600020600091509050806000015490806001018054600181600116156101000203166002900480601f016020809104026020016040519081016040528092919081815260200182805460018160011615610100020316600290048015611c945780601f10611c6957610100808354040283529160200191611c94565b820191906000526020600020905b815481529060010190602001808311611c7757829003601f168201915b505050505090806002018054600181600116156101000203166002900480601f016020809104026020016040519081016040528092919081815260200182805460018160011615610100020316600290048015611d325780601f10611d0757610100808354040283529160200191611d32565b820191906000526020600020905b815481529060010190602001808311611d1557829003601f168201915b5050505050905083565b60015481565b600060608060606004600086815260200190815260200160002060000154600460008781526020019081526020016000206001016004600088815260200190815260200160002060020160046000898152602001908152602001600020600301828054600181600116156101000203166002900480601f016020809104026020016040519081016040528092919081815260200182805460018160011615610100020316600290048015611e375780601f10611e0c57610100808354040283529160200191611e37565b820191906000526020600020905b815481529060010190602001808311611e1a57829003601f168201915b50505050509250818054600181600116156101000203166002900480601f016020809104026020016040519081016040528092919081815260200182805460018160011615610100020316600290048015611ed35780601f10611ea857610100808354040283529160200191611ed3565b820191906000526020600020905b815481529060010190602001808311611eb657829003601f168201915b5050505050915080805480602002602001604051908101604052809291908181526020018280548015611f2557602002820191906000526020600020905b815481526020019060010190808311611f11575b5050505050905093509350935093509193509193565b6005602052806000526040600020600091509050806000015490806001018054600181600116156101000203166002900480601f016020809104026020016040519081016040528092919081815260200182805460018160011615610100020316600290048015611fed5780601f10611fc257610100808354040283529160200191611fed565b820191906000526020600020905b815481529060010190602001808311611fd057829003601f168201915b505050505090806002018054600181600116156101000203166002900480601f01602080910402602001604051908101604052809291908181526020018280546001816001161561010002031660029004801561208b5780601f106120605761010080835404028352916020019161208b565b820191906000526020600020905b81548152906001019060200180831161206e57829003601f168201915b5050505050905083565b60025481565b6007602052806000526040600020600091509050806000015490806001018054600181600116156101000203166002900480601f01602080910402602001604051908101604052809291908181526020018280546001816001161561010002031660029004801561214d5780601f106121225761010080835404028352916020019161214d565b820191906000526020600020905b81548152906001019060200180831161213057829003601f168201915b505050505090806002018054600181600116156101000203166002900480601f0160208091040260200160405190810160405280929190818152602001828054600181600116156101000203166002900480156121eb5780601f106121c0576101008083540402835291602001916121eb565b820191906000526020600020905b8154815290600101906020018083116121ce57829003601f168201915b5050505050905083565b600760008273ffffffffffffffffffffffffffffffffffffffff1673ffffffffffffffffffffffffffffffffffffffff1681526020019081526020016000206003018290806001815401808255809150509060018203906000526020600020016000909192909190915055506000600760008373ffffffffffffffffffffffffffffffffffffffff1673ffffffffffffffffffffffffffffffffffffffff16815260200190815260200160002060000154905060066000828152602001908152602001600020600301839080600181540180825580915050906001820390600052602060002001600090919290919091505550505050565b6000600360008154600101919050819055506123476040805190810160405280600781526020017f53747564656e740000000000000000000000000000000000000000000000000081525083612cc890919063ffffffff16565b156124cd576000808154600101919050819055508460046000805481526020019081526020016000206001019080519060200190612386929190612fa4565b5082600460008054815260200190815260200160002060020190805190602001906123b2929190612fa4565b5060005460046000805481526020019081526020016000206000018190555084600560008673ffffffffffffffffffffffffffffffffffffffff1673ffffffffffffffffffffffffffffffffffffffff1681526020019081526020016000206001019080519060200190612427929190612fa4565b5082600560008673ffffffffffffffffffffffffffffffffffffffff1673ffffffffffffffffffffffffffffffffffffffff168152602001908152602001600020600201908051906020019061247e929190612fa4565b50600054600560008673ffffffffffffffffffffffffffffffffffffffff1673ffffffffffffffffffffffffffffffffffffffff1681526020019081526020016000206000018190555061286f565b6125156040805190810160405280600b81526020017f496e737469747574696f6e00000000000000000000000000000000000000000081525083612cc890919063ffffffff16565b1561269f5760016000815460010191905081905550846006600060015481526020019081526020016000206001019080519060200190612556929190612fa4565b50826006600060015481526020019081526020016000206002019080519060200190612583929190612fa4565b506000546006600060015481526020019081526020016000206000018190555084600760008673ffffffffffffffffffffffffffffffffffffffff1673ffffffffffffffffffffffffffffffffffffffff16815260200190815260200160002060010190805190602001906125f9929190612fa4565b5082600760008673ffffffffffffffffffffffffffffffffffffffff1673ffffffffffffffffffffffffffffffffffffffff1681526020019081526020016000206002019080519060200190612650929190612fa4565b50600154600760008673ffffffffffffffffffffffffffffffffffffffff1673ffffffffffffffffffffffffffffffffffffffff1681526020019081526020016000206000018190555061286e565b6126e76040805190810160405280600781526020017f436f6d70616e790000000000000000000000000000000000000000000000000081525083612cc890919063ffffffff16565b1561286d5760026000815460010191905081905550846008600060025481526020019081526020016000206001019080519060200190612728929190612fa4565b50826008600060025481526020019081526020016000206002019080519060200190612755929190612fa4565b506000546008600060025481526020019081526020016000206000018190555084600960008673ffffffffffffffffffffffffffffffffffffffff1673ffffffffffffffffffffffffffffffffffffffff16815260200190815260200160002060010190805190602001906127cb929190612fa4565b5082600960008673ffffffffffffffffffffffffffffffffffffffff1673ffffffffffffffffffffffffffffffffffffffff1681526020019081526020016000206002019080519060200190612822929190612fa4565b50600154600960008673ffffffffffffffffffffffffffffffffffffffff1673ffffffffffffffffffffffffffffffffffffffff168152602001908152602001600020600001819055505b5b5b949350505050565b600560008273ffffffffffffffffffffffffffffffffffffffff1673ffffffffffffffffffffffffffffffffffffffff1681526020019081526020016000206003018290806001815401808255809150509060018203906000526020600020016000909192909190915055506000600560008373ffffffffffffffffffffffffffffffffffffffff1673ffffffffffffffffffffffffffffffffffffffff16815260200190815260200160002060000154905060046000828152602001908152602001600020600301839080600181540180825580915050906001820390600052602060002001600090919290919091505550505050565b60005481565b6008602052806000526040600020600091509050806000015490806001018054600181600116156101000203166002900480601f016020809104026020016040519081016040528092919081815260200182805460018160011615610100020316600290048015612a275780601f106129fc57610100808354040283529160200191612a27565b820191906000526020600020905b815481529060010190602001808311612a0a57829003601f168201915b505050505090806002018054600181600116156101000203166002900480601f016020809104026020016040519081016040528092919081815260200182805460018160011615610100020316600290048015612ac55780601f10612a9a57610100808354040283529160200191612ac5565b820191906000526020600020905b815481529060010190602001808311612aa857829003601f168201915b5050505050905083565b600060608060606006600086815260200190815260200160002060000154600660008781526020019081526020016000206001016006600088815260200190815260200160002060020160066000898152602001908152602001600020600301828054600181600116156101000203166002900480601f016020809104026020016040519081016040528092919081815260200182805460018160011615610100020316600290048015612bc45780601f10612b9957610100808354040283529160200191612bc4565b820191906000526020600020905b815481529060010190602001808311612ba757829003601f168201915b50505050509250818054600181600116156101000203166002900480601f016020809104026020016040519081016040528092919081815260200182805460018160011615610100020316600290048015612c605780601f10612c3557610100808354040283529160200191612c60565b820191906000526020600020905b815481529060010190602001808311612c4357829003601f168201915b5050505050915080805480602002602001604051908101604052809291908181526020018280548015612cb257602002820191906000526020600020905b815481526020019060010190808311612c9e575b5050505050905093509350935093509193509193565b600080612cd58484612cde565b14905092915050565b6000606083905060608390506000825190508082511015612cfe57815190505b60008090505b81811015612f4a578281815181101515612d1a57fe5b9060200101517f010000000000000000000000000000000000000000000000000000000000000090047f0100000000000000000000000000000000000000000000000000000000000000027effffffffffffffffffffffffffffffffffffffffffffffffffffffffffffff19168482815181101515612d9557fe5b9060200101517f010000000000000000000000000000000000000000000000000000000000000090047f0100000000000000000000000000000000000000000000000000000000000000027effffffffffffffffffffffffffffffffffffffffffffffffffffffffffffff19161015612e34577fffffffffffffffffffffffffffffffffffffffffffffffffffffffffffffffff945050505050612f9e565b8281815181101515612e4257fe5b9060200101517f010000000000000000000000000000000000000000000000000000000000000090047f0100000000000000000000000000000000000000000000000000000000000000027effffffffffffffffffffffffffffffffffffffffffffffffffffffffffffff19168482815181101515612ebd57fe5b9060200101517f010000000000000000000000000000000000000000000000000000000000000090047f0100000000000000000000000000000000000000000000000000000000000000027effffffffffffffffffffffffffffffffffffffffffffffffffffffffffffff19161115612f3d576001945050505050612f9e565b8080600101915050612d04565b50815183511015612f80577fffffffffffffffffffffffffffffffffffffffffffffffffffffffffffffffff9350505050612f9e565b815183511115612f965760019350505050612f9e565b600093505050505b92915050565b828054600181600116156101000203166002900490600052602060002090601f016020900481019282601f10612fe557805160ff1916838001178555613013565b82800160010185558215613013579182015b82811115613012578251825591602001919060010190612ff7565b5b5090506130209190613024565b5090565b61304691905b8082111561304257600081600090555060010161302a565b5090565b9056fea165627a7a72305820fb43371c2702e8bbab4389685a0b0a187009f7a778505a0329aa97707e26f6170029",
  "source": "pragma solidity ^0.5.0;\n\n    import {StringUtils} from './StringUtils.sol';\n\ncontract UserContract {\n\n    using StringUtils for string;\n\n    uint public studentCount = 0;\n    uint public instiCount = 0;\n    uint public companyCount = 0;\n    uint public userCount = 0;\n\n    struct Student{\n        uint id;\n        string name;\n        string accountHash;\n        uint[] courses;\n        CourseInfo[] courseInfo;\n    }\n\n    struct Institution{\n        uint id;\n        string name;\n        string accountHash;\n        uint[] courses;\n    }\n\n    struct Company{\n        uint id;\n        string name;\n        string accountHash;\n    }\n\n    struct CourseInfo{\n        uint courseId;\n        bool status;\n        string certificateHash;\n        uint mark;\n    }\n\n    mapping(uint => Student) public student;\n    mapping(address => Student) public studentAcc;\n\n    mapping(uint => Institution) public institution;\n    mapping(address => Institution) public institutionAcc;\n\n    mapping(uint => Company) public company;\n    mapping(address => Company) public companyAcc;\n\n\n    function createUser(string memory _name, address _account, string memory _accountHash, string memory _userType) public returns(uint){\n        ++userCount;\n        if(_userType.equal(\"Student\")){\n            ++studentCount;\n            student[studentCount].name = _name;\n            student[studentCount].accountHash = _accountHash;\n            student[studentCount].id = studentCount;\n\n            studentAcc[_account].name = _name;\n            studentAcc[_account].accountHash = _accountHash;\n            studentAcc[_account].id = studentCount;\n        }\n        else if(_userType.equal(\"Institution\")){\n            ++instiCount;\n            institution[instiCount].name = _name;\n            institution[instiCount].accountHash = _accountHash;\n            institution[instiCount].id = studentCount;\n\n            institutionAcc[_account].name = _name;\n            institutionAcc[_account].accountHash = _accountHash;\n            institutionAcc[_account].id = instiCount;\n        }\n        else if(_userType.equal(\"Company\")){\n            ++companyCount;\n            company[companyCount].name = _name;\n            company[companyCount].accountHash = _accountHash;\n            company[companyCount].id = studentCount;\n\n            companyAcc[_account].name = _name;\n            companyAcc[_account].accountHash = _accountHash;\n            companyAcc[_account].id = instiCount;\n        }\n\n    }\n\n    /*function getUserCount() public view returns(uint) {\n        return userCount;\n    }\n\n    function getStudentCount() public view returns(uint) {\n        return studentCount;\n    }\n\n    function getCompanyCount() public view returns(uint) {\n        return companyCount;\n    }\n\n    function getInstitutionCount() public view returns(uint) {\n        return instiCount;\n    }\n\n    function getUser(uint _index) public view returns(uint, string memory, string memory, string memory){\n        return (user[_index].uid, user[_index].name, user[_index].accountHash, user[_index].userType);\n    }\n    */\n\n    function checkUser(address _index) public view returns(uint, string memory, string memory, uint [] memory){\n        if (studentAcc[_index].id<=studentCount && studentAcc[_index].id!=0){\n           return (studentAcc[_index].id, studentAcc[_index].name, studentAcc[_index].accountHash, studentAcc[_index].courses);\n        }\n        //else if (companyAcc[_index].id<=companyCount && companyAcc[_index].id!=0){\n         //   return true;\n        //}\n        else if (institutionAcc[_index].id<=instiCount && institutionAcc[_index].id!=0){\n          return (institutionAcc[_index].id, institutionAcc[_index].name, institutionAcc[_index].accountHash, institutionAcc[_index].courses);\n        }\n        else{\n           return (institutionAcc[_index].id, institutionAcc[_index].name, institutionAcc[_index].accountHash, institutionAcc[_index].courses);\n        }\n        //return (userAcc[_index].uid, userAcc[_index].name, userAcc[_index].accountHash, userAcc[_index].userType);\n    }\n\n    function addCourse(uint _courseId, address institutionAccount) public{\n        institutionAcc[institutionAccount].courses.push(_courseId);\n        uint userId = institutionAcc[institutionAccount].id;\n\n        institution[userId].courses.push(_courseId);\n    }\n\n    function registerCourse(uint _courseId, address studentAccount) public{\n        studentAcc[studentAccount].courses.push(_courseId);\n        uint userId = studentAcc[studentAccount].id;\n\n        student[userId].courses.push(_courseId);\n    }\n\n    function getInstituionDetails(uint id) public view returns(uint, string memory, string memory, uint [] memory) {\n        return (institution[id].id, institution[id].name, institution[id].accountHash, institution[id].courses);\n    }\n\n\n    function getStudentDetails(uint index) public view returns(uint, string memory, string memory, uint [] memory) {\n        return (student[index].id, student[index].name, student[index].accountHash, student[index].courses);\n    }\n\n}\n",
  "sourcePath": "/home/arvindraj/Documents/Projects/ethlearn/contracts/UserContract.sol",
  "compiler": {
    "name": "solc",
    "version": "0.5.0+commit.1d4f565a.Emscripten.clang"
  },
  "schemaVersion": "3.0.1",
  "updatedAt": "2021-02-24T17:10:13.530Z",
  "devdoc": {
    "methods": {}
  },
  "userdoc": {
    "methods": {}
  }
}